{
  "_format": "hh-sol-artifact-1",
  "contractName": "SimplePayAndNFT",
  "sourceName": "contracts/SimplePayAndNFT.sol",
  "abi": [
    {
      "inputs": [],
      "stateMutability": "payable",
      "type": "constructor"
    },
    {
      "anonymous": false,
      "inputs": [],
      "name": "Aborted",
      "type": "event"
    },
    {
      "anonymous": false,
      "inputs": [
        {
          "indexed": true,
          "internalType": "address",
          "name": "owner",
          "type": "address"
        },
        {
          "indexed": true,
          "internalType": "address",
          "name": "approved",
          "type": "address"
        },
        {
          "indexed": true,
          "internalType": "uint256",
          "name": "tokenId",
          "type": "uint256"
        }
      ],
      "name": "Approval",
      "type": "event"
    },
    {
      "anonymous": false,
      "inputs": [
        {
          "indexed": true,
          "internalType": "address",
          "name": "owner",
          "type": "address"
        },
        {
          "indexed": true,
          "internalType": "address",
          "name": "operator",
          "type": "address"
        },
        {
          "indexed": false,
          "internalType": "bool",
          "name": "approved",
          "type": "bool"
        }
      ],
      "name": "ApprovalForAll",
      "type": "event"
    },
    {
      "anonymous": false,
      "inputs": [],
      "name": "ItemReceived",
      "type": "event"
    },
    {
      "anonymous": false,
      "inputs": [
        {
          "indexed": true,
          "internalType": "address",
          "name": "previousOwner",
          "type": "address"
        },
        {
          "indexed": true,
          "internalType": "address",
          "name": "newOwner",
          "type": "address"
        }
      ],
      "name": "OwnershipTransferred",
      "type": "event"
    },
    {
      "anonymous": false,
      "inputs": [],
      "name": "PurchaseConfirmed",
      "type": "event"
    },
    {
      "anonymous": false,
      "inputs": [
        {
          "indexed": true,
          "internalType": "address",
          "name": "from",
          "type": "address"
        },
        {
          "indexed": true,
          "internalType": "address",
          "name": "to",
          "type": "address"
        },
        {
          "indexed": true,
          "internalType": "uint256",
          "name": "tokenId",
          "type": "uint256"
        }
      ],
      "name": "Transfer",
      "type": "event"
    },
    {
      "inputs": [
        {
          "internalType": "address",
          "name": "to",
          "type": "address"
        },
        {
          "internalType": "uint256",
          "name": "tokenId",
          "type": "uint256"
        }
      ],
      "name": "approve",
      "outputs": [],
      "stateMutability": "nonpayable",
      "type": "function"
    },
    {
      "inputs": [
        {
          "internalType": "address",
          "name": "owner",
          "type": "address"
        }
      ],
      "name": "balanceOf",
      "outputs": [
        {
          "internalType": "uint256",
          "name": "",
          "type": "uint256"
        }
      ],
      "stateMutability": "view",
      "type": "function"
    },
    {
      "inputs": [],
      "name": "baseURI",
      "outputs": [
        {
          "internalType": "string",
          "name": "",
          "type": "string"
        }
      ],
      "stateMutability": "view",
      "type": "function"
    },
    {
      "inputs": [],
      "name": "buyer",
      "outputs": [
        {
          "internalType": "address",
          "name": "",
          "type": "address"
        }
      ],
      "stateMutability": "view",
      "type": "function"
    },
    {
      "inputs": [],
      "name": "cost",
      "outputs": [
        {
          "internalType": "uint256",
          "name": "",
          "type": "uint256"
        }
      ],
      "stateMutability": "view",
      "type": "function"
    },
    {
      "inputs": [
        {
          "internalType": "bytes",
          "name": "_signature",
          "type": "bytes"
        }
      ],
      "name": "deposit",
      "outputs": [],
      "stateMutability": "payable",
      "type": "function"
    },
    {
      "inputs": [
        {
          "internalType": "uint256",
          "name": "tokenId",
          "type": "uint256"
        }
      ],
      "name": "getApproved",
      "outputs": [
        {
          "internalType": "address",
          "name": "",
          "type": "address"
        }
      ],
      "stateMutability": "view",
      "type": "function"
    },
    {
      "inputs": [],
      "name": "getBalance",
      "outputs": [
        {
          "internalType": "uint256",
          "name": "",
          "type": "uint256"
        }
      ],
      "stateMutability": "view",
      "type": "function"
    },
    {
      "inputs": [
        {
          "internalType": "address",
          "name": "owner",
          "type": "address"
        },
        {
          "internalType": "address",
          "name": "operator",
          "type": "address"
        }
      ],
      "name": "isApprovedForAll",
      "outputs": [
        {
          "internalType": "bool",
          "name": "",
          "type": "bool"
        }
      ],
      "stateMutability": "view",
      "type": "function"
    },
    {
      "inputs": [
        {
          "internalType": "bytes",
          "name": "_signature",
          "type": "bytes"
        }
      ],
      "name": "isMessageVaild",
      "outputs": [
        {
          "internalType": "bool",
          "name": "",
          "type": "bool"
        }
      ],
      "stateMutability": "view",
      "type": "function"
    },
    {
      "inputs": [
        {
          "internalType": "uint256",
          "name": "productPrice",
          "type": "uint256"
        }
      ],
      "name": "itemcost",
      "outputs": [],
      "stateMutability": "payable",
      "type": "function"
    },
    {
      "inputs": [],
      "name": "maxMintAmount",
      "outputs": [
        {
          "internalType": "uint256",
          "name": "",
          "type": "uint256"
        }
      ],
      "stateMutability": "view",
      "type": "function"
    },
    {
      "inputs": [],
      "name": "maxSupply",
      "outputs": [
        {
          "internalType": "uint256",
          "name": "",
          "type": "uint256"
        }
      ],
      "stateMutability": "view",
      "type": "function"
    },
    {
      "inputs": [
        {
          "internalType": "uint256",
          "name": "_mintAmount",
          "type": "uint256"
        }
      ],
      "name": "mint",
      "outputs": [],
      "stateMutability": "payable",
      "type": "function"
    },
    {
      "inputs": [],
      "name": "name",
      "outputs": [
        {
          "internalType": "string",
          "name": "",
          "type": "string"
        }
      ],
      "stateMutability": "view",
      "type": "function"
    },
    {
      "inputs": [],
      "name": "owner",
      "outputs": [
        {
          "internalType": "address",
          "name": "",
          "type": "address"
        }
      ],
      "stateMutability": "view",
      "type": "function"
    },
    {
      "inputs": [
        {
          "internalType": "uint256",
          "name": "tokenId",
          "type": "uint256"
        }
      ],
      "name": "ownerOf",
      "outputs": [
        {
          "internalType": "address",
          "name": "",
          "type": "address"
        }
      ],
      "stateMutability": "view",
      "type": "function"
    },
    {
      "inputs": [],
      "name": "pause",
      "outputs": [],
      "stateMutability": "nonpayable",
      "type": "function"
    },
    {
      "inputs": [],
      "name": "paused",
      "outputs": [
        {
          "internalType": "bool",
          "name": "",
          "type": "bool"
        }
      ],
      "stateMutability": "view",
      "type": "function"
    },
    {
      "inputs": [],
      "name": "price",
      "outputs": [
        {
          "internalType": "uint256",
          "name": "",
          "type": "uint256"
        }
      ],
      "stateMutability": "view",
      "type": "function"
    },
    {
      "inputs": [],
      "name": "renounceOwnership",
      "outputs": [],
      "stateMutability": "nonpayable",
      "type": "function"
    },
    {
      "inputs": [
        {
          "internalType": "address",
          "name": "from",
          "type": "address"
        },
        {
          "internalType": "address",
          "name": "to",
          "type": "address"
        },
        {
          "internalType": "uint256",
          "name": "tokenId",
          "type": "uint256"
        }
      ],
      "name": "safeTransferFrom",
      "outputs": [],
      "stateMutability": "nonpayable",
      "type": "function"
    },
    {
      "inputs": [
        {
          "internalType": "address",
          "name": "from",
          "type": "address"
        },
        {
          "internalType": "address",
          "name": "to",
          "type": "address"
        },
        {
          "internalType": "uint256",
          "name": "tokenId",
          "type": "uint256"
        },
        {
          "internalType": "bytes",
          "name": "data",
          "type": "bytes"
        }
      ],
      "name": "safeTransferFrom",
      "outputs": [],
      "stateMutability": "nonpayable",
      "type": "function"
    },
    {
      "inputs": [],
      "name": "seller",
      "outputs": [
        {
          "internalType": "address",
          "name": "",
          "type": "address"
        }
      ],
      "stateMutability": "view",
      "type": "function"
    },
    {
      "inputs": [
        {
          "internalType": "address",
          "name": "operator",
          "type": "address"
        },
        {
          "internalType": "bool",
          "name": "approved",
          "type": "bool"
        }
      ],
      "name": "setApprovalForAll",
      "outputs": [],
      "stateMutability": "nonpayable",
      "type": "function"
    },
    {
      "inputs": [
        {
          "internalType": "string",
          "name": "_newBaseURI",
          "type": "string"
        }
      ],
      "name": "setBaseURI",
      "outputs": [],
      "stateMutability": "nonpayable",
      "type": "function"
    },
    {
      "inputs": [
        {
          "internalType": "uint256",
          "name": "_newCost",
          "type": "uint256"
        }
      ],
      "name": "setCost",
      "outputs": [],
      "stateMutability": "nonpayable",
      "type": "function"
    },
    {
      "inputs": [
        {
          "internalType": "uint256",
          "name": "_newMaxSupply",
          "type": "uint256"
        }
      ],
      "name": "setMaxSupply",
      "outputs": [],
      "stateMutability": "nonpayable",
      "type": "function"
    },
    {
      "inputs": [
        {
          "internalType": "uint256",
          "name": "_newmaxMintAmount",
          "type": "uint256"
        }
      ],
      "name": "setmaxMintAmount",
      "outputs": [],
      "stateMutability": "nonpayable",
      "type": "function"
    },
    {
      "inputs": [],
      "name": "state",
      "outputs": [
        {
          "internalType": "enum SimplePayAndNFT.State",
          "name": "",
          "type": "uint8"
        }
      ],
      "stateMutability": "view",
      "type": "function"
    },
    {
      "inputs": [
        {
          "internalType": "bytes4",
          "name": "interfaceId",
          "type": "bytes4"
        }
      ],
      "name": "supportsInterface",
      "outputs": [
        {
          "internalType": "bool",
          "name": "",
          "type": "bool"
        }
      ],
      "stateMutability": "view",
      "type": "function"
    },
    {
      "inputs": [],
      "name": "symbol",
      "outputs": [
        {
          "internalType": "string",
          "name": "",
          "type": "string"
        }
      ],
      "stateMutability": "view",
      "type": "function"
    },
    {
      "inputs": [
        {
          "internalType": "uint256",
          "name": "index",
          "type": "uint256"
        }
      ],
      "name": "tokenByIndex",
      "outputs": [
        {
          "internalType": "uint256",
          "name": "",
          "type": "uint256"
        }
      ],
      "stateMutability": "view",
      "type": "function"
    },
    {
      "inputs": [
        {
          "internalType": "address",
          "name": "owner",
          "type": "address"
        },
        {
          "internalType": "uint256",
          "name": "index",
          "type": "uint256"
        }
      ],
      "name": "tokenOfOwnerByIndex",
      "outputs": [
        {
          "internalType": "uint256",
          "name": "",
          "type": "uint256"
        }
      ],
      "stateMutability": "view",
      "type": "function"
    },
    {
      "inputs": [
        {
          "internalType": "uint256",
          "name": "tokenId",
          "type": "uint256"
        }
      ],
      "name": "tokenURI",
      "outputs": [
        {
          "internalType": "string",
          "name": "",
          "type": "string"
        }
      ],
      "stateMutability": "view",
      "type": "function"
    },
    {
      "inputs": [],
      "name": "totalSupply",
      "outputs": [
        {
          "internalType": "uint256",
          "name": "",
          "type": "uint256"
        }
      ],
      "stateMutability": "view",
      "type": "function"
    },
    {
      "inputs": [
        {
          "internalType": "address",
          "name": "from",
          "type": "address"
        },
        {
          "internalType": "address",
          "name": "to",
          "type": "address"
        },
        {
          "internalType": "uint256",
          "name": "tokenId",
          "type": "uint256"
        }
      ],
      "name": "transferFrom",
      "outputs": [],
      "stateMutability": "nonpayable",
      "type": "function"
    },
    {
      "inputs": [
        {
          "internalType": "address",
          "name": "newOwner",
          "type": "address"
        }
      ],
      "name": "transferOwnership",
      "outputs": [],
      "stateMutability": "nonpayable",
      "type": "function"
    },
    {
      "inputs": [
        {
          "internalType": "address",
          "name": "_owner",
          "type": "address"
        }
      ],
      "name": "walletOfOwner",
      "outputs": [
        {
          "internalType": "uint256[]",
          "name": "",
          "type": "uint256[]"
        }
      ],
      "stateMutability": "view",
      "type": "function"
    }
  ],
  "bytecode": "0x608060405260405180606001604052806035815260200162004fba60359139600c9080519060200190620000359291906200024e565b506000600d60006101000a81548160ff021916908315150217905550655af3107a4000600e556005600f55600160105573c98e9c69119eb0b764b0d5dcbc1532de8bfc2d4f601260006101000a81548173ffffffffffffffffffffffffffffffffffffffff021916908373ffffffffffffffffffffffffffffffffffffffff1602179055506040518060400160405280600a81526020017f53686f70436f696e5432000000000000000000000000000000000000000000008152506040518060400160405280600481526020017f534354320000000000000000000000000000000000000000000000000000000081525081600090805190602001906200013e9291906200024e565b508060019080519060200190620001579291906200024e565b5050506200017a6200016e6200018060201b60201c565b6200018860201b60201c565b62000363565b600033905090565b6000600a60009054906101000a900473ffffffffffffffffffffffffffffffffffffffff16905081600a60006101000a81548173ffffffffffffffffffffffffffffffffffffffff021916908373ffffffffffffffffffffffffffffffffffffffff1602179055508173ffffffffffffffffffffffffffffffffffffffff168173ffffffffffffffffffffffffffffffffffffffff167f8be0079c531659141344cd1fd0a4f28419497f9722a3daafe3b4186f6b6457e060405160405180910390a35050565b8280546200025c90620002fe565b90600052602060002090601f016020900481019282620002805760008555620002cc565b82601f106200029b57805160ff1916838001178555620002cc565b82800160010185558215620002cc579182015b82811115620002cb578251825591602001919060010190620002ae565b5b509050620002db9190620002df565b5090565b5b80821115620002fa576000816000905550600101620002e0565b5090565b600060028204905060018216806200031757607f821691505b602082108114156200032e576200032d62000334565b5b50919050565b7f4e487b7100000000000000000000000000000000000000000000000000000000600052602260045260246000fd5b614c4780620003736000396000f3fe6080604052600436106102305760003560e01c80636c0360eb1161012e57806398b1e06a116100ab578063c19d93fb1161006f578063c19d93fb14610814578063c87b56dd1461083f578063d5abeb011461087c578063e985e9c5146108a7578063f2fde38b146108e457610230565b806398b1e06a1461075f578063a035b1fe1461077b578063a0712d68146107a6578063a22cb465146107c2578063b88d4fde146107eb57610230565b80637f00c7a6116100f25780637f00c7a6146106ad57806382e7ca34146106d65780638456cb59146106f25780638da5cb5b1461070957806395d89b411461073457610230565b80636c0360eb146105da5780636f8b44b01461060557806370a082311461062e578063715018a61461066b5780637150d8ae1461068257610230565b806323b872dd116101bc57806344a0d68a1161018057806344a0d68a146104e35780634f6ccce71461050c57806355f804b3146105495780635c975abb146105725780636352211e1461059d57610230565b806323b872dd146103da57806328308398146104035780632f745c591461044057806342842e0e1461047d578063438b6300146104a657610230565b8063095ea7b311610203578063095ea7b31461030557806312065fe01461032e57806313faede61461035957806318160ddd14610384578063239c70ae146103af57610230565b806301ffc9a71461023557806306fdde0314610272578063081812fc1461029d57806308551a53146102da575b600080fd5b34801561024157600080fd5b5061025c60048036038101906102579190613472565b61090d565b6040516102699190613bfd565b60405180910390f35b34801561027e57600080fd5b50610287610987565b6040516102949190613c78565b60405180910390f35b3480156102a957600080fd5b506102c460048036038101906102bf9190613546565b610a19565b6040516102d19190613b74565b60405180910390f35b3480156102e657600080fd5b506102ef610a5f565b6040516102fc9190613b74565b60405180910390f35b34801561031157600080fd5b5061032c60048036038101906103279190613436565b610a85565b005b34801561033a57600080fd5b50610343610b9d565b6040516103509190613fba565b60405180910390f35b34801561036557600080fd5b5061036e610ba5565b60405161037b9190613fba565b60405180910390f35b34801561039057600080fd5b50610399610bab565b6040516103a69190613fba565b60405180910390f35b3480156103bb57600080fd5b506103c4610bb5565b6040516103d19190613fba565b60405180910390f35b3480156103e657600080fd5b5061040160048036038101906103fc9190613330565b610bbb565b005b34801561040f57600080fd5b5061042a600480360381019061042591906134c4565b610c1b565b6040516104379190613bfd565b60405180910390f35b34801561044c57600080fd5b5061046760048036038101906104629190613436565b610cb4565b6040516104749190613fba565b60405180910390f35b34801561048957600080fd5b506104a4600480360381019061049f9190613330565b610d59565b005b3480156104b257600080fd5b506104cd60048036038101906104c891906132cb565b610d79565b6040516104da9190613bdb565b60405180910390f35b3480156104ef57600080fd5b5061050a60048036038101906105059190613546565b610e73565b005b34801561051857600080fd5b50610533600480360381019061052e9190613546565b610e85565b6040516105409190613fba565b60405180910390f35b34801561055557600080fd5b50610570600480360381019061056b9190613505565b610f1c565b005b34801561057e57600080fd5b50610587610f3e565b6040516105949190613bfd565b60405180910390f35b3480156105a957600080fd5b506105c460048036038101906105bf9190613546565b610f51565b6040516105d19190613b74565b60405180910390f35b3480156105e657600080fd5b506105ef611003565b6040516105fc9190613c78565b60405180910390f35b34801561061157600080fd5b5061062c60048036038101906106279190613546565b611091565b005b34801561063a57600080fd5b50610655600480360381019061065091906132cb565b6110a3565b6040516106629190613fba565b60405180910390f35b34801561067757600080fd5b5061068061115b565b005b34801561068e57600080fd5b5061069761116f565b6040516106a49190613b74565b60405180910390f35b3480156106b957600080fd5b506106d460048036038101906106cf9190613546565b611195565b005b6106f060048036038101906106eb9190613546565b6111a7565b005b3480156106fe57600080fd5b506107076111b1565b005b34801561071557600080fd5b5061071e6111e5565b60405161072b9190613b74565b60405180910390f35b34801561074057600080fd5b5061074961120f565b6040516107569190613c78565b60405180910390f35b610779600480360381019061077491906134c4565b6112a1565b005b34801561078757600080fd5b50610790611457565b60405161079d9190613fba565b60405180910390f35b6107c060048036038101906107bb9190613546565b61145d565b005b3480156107ce57600080fd5b506107e960048036038101906107e491906133fa565b6115c7565b005b3480156107f757600080fd5b50610812600480360381019061080d919061337f565b6115dd565b005b34801561082057600080fd5b5061082961163f565b6040516108369190613c5d565b60405180910390f35b34801561084b57600080fd5b5061086660048036038101906108619190613546565b611652565b6040516108739190613c78565b60405180910390f35b34801561088857600080fd5b5061089161177c565b60405161089e9190613fba565b60405180910390f35b3480156108b357600080fd5b506108ce60048036038101906108c991906132f4565b611782565b6040516108db9190613bfd565b60405180910390f35b3480156108f057600080fd5b5061090b600480360381019061090691906132cb565b611816565b005b60007f780e9d63000000000000000000000000000000000000000000000000000000007bffffffffffffffffffffffffffffffffffffffffffffffffffffffff1916827bffffffffffffffffffffffffffffffffffffffffffffffffffffffff19161480610980575061097f8261189a565b5b9050919050565b606060008054610996906142df565b80601f01602080910402602001604051908101604052809291908181526020018280546109c2906142df565b8015610a0f5780601f106109e457610100808354040283529160200191610a0f565b820191906000526020600020905b8154815290600101906020018083116109f257829003601f168201915b5050505050905090565b6000610a248261197c565b6004600083815260200190815260200160002060009054906101000a900473ffffffffffffffffffffffffffffffffffffffff169050919050565b601260009054906101000a900473ffffffffffffffffffffffffffffffffffffffff1681565b6000610a9082610f51565b90508073ffffffffffffffffffffffffffffffffffffffff168373ffffffffffffffffffffffffffffffffffffffff161415610b01576040517f08c379a0000000000000000000000000000000000000000000000000000000008152600401610af890613f3a565b60405180910390fd5b8073ffffffffffffffffffffffffffffffffffffffff16610b206119c7565b73ffffffffffffffffffffffffffffffffffffffff161480610b4f5750610b4e81610b496119c7565b611782565b5b610b8e576040517f08c379a0000000000000000000000000000000000000000000000000000000008152600401610b8590613e9a565b60405180910390fd5b610b9883836119cf565b505050565b600047905090565b600e5481565b6000600f54905090565b60105481565b610bcc610bc66119c7565b82611a88565b610c0b576040517f08c379a0000000000000000000000000000000000000000000000000000000008152600401610c0290613f9a565b60405180910390fd5b610c16838383611b1d565b505050565b600080604051602001610c2d90613b5f565b60405160208183030381529060405290506000818051906020012090506000610c5582611d84565b90506000610c638287611db4565b90508073ffffffffffffffffffffffffffffffffffffffff163373ffffffffffffffffffffffffffffffffffffffff161415610ca6576001945050505050610caf565b60009450505050505b919050565b6000610cbf836110a3565b8210610d00576040517f08c379a0000000000000000000000000000000000000000000000000000000008152600401610cf790613d1a565b60405180910390fd5b600660008473ffffffffffffffffffffffffffffffffffffffff1673ffffffffffffffffffffffffffffffffffffffff168152602001908152602001600020600083815260200190815260200160002054905092915050565b610d74838383604051806020016040528060008152506115dd565b505050565b60606000610d86836110a3565b905060008167ffffffffffffffff811115610dca577f4e487b7100000000000000000000000000000000000000000000000000000000600052604160045260246000fd5b604051908082528060200260200182016040528015610df85781602001602082028036833780820191505090505b50905060005b82811015610e6857610e108582610cb4565b828281518110610e49577f4e487b7100000000000000000000000000000000000000000000000000000000600052603260045260246000fd5b6020026020010181815250508080610e6090614342565b915050610dfe565b508092505050919050565b610e7b611ddb565b80600e8190555050565b6000610e8f611e59565b8210610ed0576040517f08c379a0000000000000000000000000000000000000000000000000000000008152600401610ec790613f5a565b60405180910390fd5b60088281548110610f0a577f4e487b7100000000000000000000000000000000000000000000000000000000600052603260045260246000fd5b90600052602060002001549050919050565b610f24611ddb565b80600c9080519060200190610f3a9291906130ef565b5050565b600d60009054906101000a900460ff1681565b6000806002600084815260200190815260200160002060009054906101000a900473ffffffffffffffffffffffffffffffffffffffff169050600073ffffffffffffffffffffffffffffffffffffffff168173ffffffffffffffffffffffffffffffffffffffff161415610ffa576040517f08c379a0000000000000000000000000000000000000000000000000000000008152600401610ff190613f1a565b60405180910390fd5b80915050919050565b600c8054611010906142df565b80601f016020809104026020016040519081016040528092919081815260200182805461103c906142df565b80156110895780601f1061105e57610100808354040283529160200191611089565b820191906000526020600020905b81548152906001019060200180831161106c57829003601f168201915b505050505081565b611099611ddb565b80600f8190555050565b60008073ffffffffffffffffffffffffffffffffffffffff168273ffffffffffffffffffffffffffffffffffffffff161415611114576040517f08c379a000000000000000000000000000000000000000000000000000000000815260040161110b90613e5a565b60405180910390fd5b600360008373ffffffffffffffffffffffffffffffffffffffff1673ffffffffffffffffffffffffffffffffffffffff168152602001908152602001600020549050919050565b611163611ddb565b61116d6000611e66565b565b601360009054906101000a900473ffffffffffffffffffffffffffffffffffffffff1681565b61119d611ddb565b8060108190555050565b8060118190555050565b6111b9611ddb565b600d60009054906101000a900460ff1615600d60006101000a81548160ff021916908315150217905550565b6000600a60009054906101000a900473ffffffffffffffffffffffffffffffffffffffff16905090565b60606001805461121e906142df565b80601f016020809104026020016040519081016040528092919081815260200182805461124a906142df565b80156112975780601f1061126c57610100808354040283529160200191611297565b820191906000526020600020905b81548152906001019060200180831161127a57829003601f168201915b5050505050905090565b60115434146112e5576040517f08c379a00000000000000000000000000000000000000000000000000000000081526004016112dc90613cfa565b60405180910390fd5b6112ee81610c1b565b61132d576040517f08c379a000000000000000000000000000000000000000000000000000000000815260040161132490613dfa565b60405180910390fd5b7fd5d55c8a68912e9a110618df8d5e2e83b8d83211c57a8ddd1203df92885dc88160405160405180910390a133601360006101000a81548173ffffffffffffffffffffffffffffffffffffffff021916908373ffffffffffffffffffffffffffffffffffffffff1602179055506000601360146101000a81548160ff021916908360028111156113e6577f4e487b7100000000000000000000000000000000000000000000000000000000600052602160045260246000fd5b0217905550601260009054906101000a900473ffffffffffffffffffffffffffffffffffffffff1673ffffffffffffffffffffffffffffffffffffffff166108fc479081150290604051600060405180830381858888f19350505050158015611453573d6000803e3d6000fd5b5050565b60115481565b60011515600d60009054906101000a900460ff16151514156114b4576040517f08c379a00000000000000000000000000000000000000000000000000000000081526004016114ab90613cba565b60405180910390fd5b600081116114c157600080fd5b601054811115611506576040517f08c379a00000000000000000000000000000000000000000000000000000000081526004016114fd90613f7a565b60405180910390fd5b3481600e54611515919061415f565b1115611556576040517f08c379a000000000000000000000000000000000000000000000000000000000815260040161154d90613e1a565b60405180910390fd5b60005b818110156115c357600061156d600b611f2c565b90505b61157981611f3a565b1561159157818061158990614342565b925050611570565b600f5481116115af576115a43382611fa6565b6115ae600b611fc4565b5b5080806115bb90614342565b915050611559565b5050565b6115d96115d26119c7565b8383611fda565b5050565b6115ee6115e86119c7565b83611a88565b61162d576040517f08c379a000000000000000000000000000000000000000000000000000000000815260040161162490613f9a565b60405180910390fd5b61163984848484612147565b50505050565b601360149054906101000a900460ff1681565b606061165d82611f3a565b61169c576040517f08c379a000000000000000000000000000000000000000000000000000000000815260040161169390613efa565b60405180910390fd5b6000600c80546116ab906142df565b80601f01602080910402602001604051908101604052809291908181526020018280546116d7906142df565b80156117245780601f106116f957610100808354040283529160200191611724565b820191906000526020600020905b81548152906001019060200180831161170757829003601f168201915b5050505050905060008151116117495760405180602001604052806000815250611774565b80611753846121a3565b604051602001611764929190613aff565b6040516020818303038152906040525b915050919050565b600f5481565b6000600560008473ffffffffffffffffffffffffffffffffffffffff1673ffffffffffffffffffffffffffffffffffffffff16815260200190815260200160002060008373ffffffffffffffffffffffffffffffffffffffff1673ffffffffffffffffffffffffffffffffffffffff16815260200190815260200160002060009054906101000a900460ff16905092915050565b61181e611ddb565b600073ffffffffffffffffffffffffffffffffffffffff168173ffffffffffffffffffffffffffffffffffffffff16141561188e576040517f08c379a000000000000000000000000000000000000000000000000000000000815260040161188590613d5a565b60405180910390fd5b61189781611e66565b50565b60007f80ac58cd000000000000000000000000000000000000000000000000000000007bffffffffffffffffffffffffffffffffffffffffffffffffffffffff1916827bffffffffffffffffffffffffffffffffffffffffffffffffffffffff1916148061196557507f5b5e139f000000000000000000000000000000000000000000000000000000007bffffffffffffffffffffffffffffffffffffffffffffffffffffffff1916827bffffffffffffffffffffffffffffffffffffffffffffffffffffffff1916145b80611975575061197482612350565b5b9050919050565b61198581611f3a565b6119c4576040517f08c379a00000000000000000000000000000000000000000000000000000000081526004016119bb90613f1a565b60405180910390fd5b50565b600033905090565b816004600083815260200190815260200160002060006101000a81548173ffffffffffffffffffffffffffffffffffffffff021916908373ffffffffffffffffffffffffffffffffffffffff160217905550808273ffffffffffffffffffffffffffffffffffffffff16611a4283610f51565b73ffffffffffffffffffffffffffffffffffffffff167f8c5be1e5ebec7d5bd14f71427d1e84f3dd0314c0f7b2291e5b200ac8c7c3b92560405160405180910390a45050565b600080611a9483610f51565b90508073ffffffffffffffffffffffffffffffffffffffff168473ffffffffffffffffffffffffffffffffffffffff161480611ad65750611ad58185611782565b5b80611b1457508373ffffffffffffffffffffffffffffffffffffffff16611afc84610a19565b73ffffffffffffffffffffffffffffffffffffffff16145b91505092915050565b8273ffffffffffffffffffffffffffffffffffffffff16611b3d82610f51565b73ffffffffffffffffffffffffffffffffffffffff1614611b93576040517f08c379a0000000000000000000000000000000000000000000000000000000008152600401611b8a90613d7a565b60405180910390fd5b600073ffffffffffffffffffffffffffffffffffffffff168273ffffffffffffffffffffffffffffffffffffffff161415611c03576040517f08c379a0000000000000000000000000000000000000000000000000000000008152600401611bfa90613dba565b60405180910390fd5b611c0e8383836123ba565b611c196000826119cf565b6001600360008573ffffffffffffffffffffffffffffffffffffffff1673ffffffffffffffffffffffffffffffffffffffff1681526020019081526020016000206000828254611c6991906141b9565b925050819055506001600360008473ffffffffffffffffffffffffffffffffffffffff1673ffffffffffffffffffffffffffffffffffffffff1681526020019081526020016000206000828254611cc091906140d8565b92505081905550816002600083815260200190815260200160002060006101000a81548173ffffffffffffffffffffffffffffffffffffffff021916908373ffffffffffffffffffffffffffffffffffffffff160217905550808273ffffffffffffffffffffffffffffffffffffffff168473ffffffffffffffffffffffffffffffffffffffff167fddf252ad1be2c89b69c2b068fc378daa952ba7f163c4a11628f55a4df523b3ef60405160405180910390a4611d7f8383836124ce565b505050565b600081604051602001611d979190613b39565b604051602081830303815290604052805190602001209050919050565b6000806000611dc385856124d3565b91509150611dd081612525565b819250505092915050565b611de36119c7565b73ffffffffffffffffffffffffffffffffffffffff16611e016111e5565b73ffffffffffffffffffffffffffffffffffffffff1614611e57576040517f08c379a0000000000000000000000000000000000000000000000000000000008152600401611e4e90613eda565b60405180910390fd5b565b6000600880549050905090565b6000600a60009054906101000a900473ffffffffffffffffffffffffffffffffffffffff16905081600a60006101000a81548173ffffffffffffffffffffffffffffffffffffffff021916908373ffffffffffffffffffffffffffffffffffffffff1602179055508173ffffffffffffffffffffffffffffffffffffffff168173ffffffffffffffffffffffffffffffffffffffff167f8be0079c531659141344cd1fd0a4f28419497f9722a3daafe3b4186f6b6457e060405160405180910390a35050565b600081600001549050919050565b60008073ffffffffffffffffffffffffffffffffffffffff166002600084815260200190815260200160002060009054906101000a900473ffffffffffffffffffffffffffffffffffffffff1673ffffffffffffffffffffffffffffffffffffffff1614159050919050565b611fc0828260405180602001604052806000815250612876565b5050565b6001816000016000828254019250508190555050565b8173ffffffffffffffffffffffffffffffffffffffff168373ffffffffffffffffffffffffffffffffffffffff161415612049576040517f08c379a000000000000000000000000000000000000000000000000000000000815260040161204090613dda565b60405180910390fd5b80600560008573ffffffffffffffffffffffffffffffffffffffff1673ffffffffffffffffffffffffffffffffffffffff16815260200190815260200160002060008473ffffffffffffffffffffffffffffffffffffffff1673ffffffffffffffffffffffffffffffffffffffff16815260200190815260200160002060006101000a81548160ff0219169083151502179055508173ffffffffffffffffffffffffffffffffffffffff168373ffffffffffffffffffffffffffffffffffffffff167f17307eab39ab6107e8899845ad3d59bd9653f200f220920489ca2b5937696c318360405161213a9190613bfd565b60405180910390a3505050565b612152848484611b1d565b61215e848484846128d1565b61219d576040517f08c379a000000000000000000000000000000000000000000000000000000000815260040161219490613d3a565b60405180910390fd5b50505050565b606060008214156121eb576040518060400160405280600181526020017f3000000000000000000000000000000000000000000000000000000000000000815250905061234b565b600082905060005b6000821461221d57808061220690614342565b915050600a82612216919061412e565b91506121f3565b60008167ffffffffffffffff81111561225f577f4e487b7100000000000000000000000000000000000000000000000000000000600052604160045260246000fd5b6040519080825280601f01601f1916602001820160405280156122915781602001600182028036833780820191505090505b5090505b60008514612344576001826122aa91906141b9565b9150600a856122b99190614395565b60306122c591906140d8565b60f81b818381518110612301577f4e487b7100000000000000000000000000000000000000000000000000000000600052603260045260246000fd5b60200101907effffffffffffffffffffffffffffffffffffffffffffffffffffffffffffff1916908160001a905350600a8561233d919061412e565b9450612295565b8093505050505b919050565b60007f01ffc9a7000000000000000000000000000000000000000000000000000000007bffffffffffffffffffffffffffffffffffffffffffffffffffffffff1916827bffffffffffffffffffffffffffffffffffffffffffffffffffffffff1916149050919050565b6123c5838383612a68565b600073ffffffffffffffffffffffffffffffffffffffff168373ffffffffffffffffffffffffffffffffffffffff1614156124085761240381612a6d565b612447565b8173ffffffffffffffffffffffffffffffffffffffff168373ffffffffffffffffffffffffffffffffffffffff1614612446576124458382612ab6565b5b5b600073ffffffffffffffffffffffffffffffffffffffff168273ffffffffffffffffffffffffffffffffffffffff16141561248a5761248581612c23565b6124c9565b8273ffffffffffffffffffffffffffffffffffffffff168273ffffffffffffffffffffffffffffffffffffffff16146124c8576124c78282612d66565b5b5b505050565b505050565b6000806041835114156125155760008060006020860151925060408601519150606086015160001a905061250987828585612de5565b9450945050505061251e565b60006002915091505b9250929050565b6000600481111561255f577f4e487b7100000000000000000000000000000000000000000000000000000000600052602160045260246000fd5b816004811115612598577f4e487b7100000000000000000000000000000000000000000000000000000000600052602160045260246000fd5b14156125a357612873565b600160048111156125dd577f4e487b7100000000000000000000000000000000000000000000000000000000600052602160045260246000fd5b816004811115612616577f4e487b7100000000000000000000000000000000000000000000000000000000600052602160045260246000fd5b1415612657576040517f08c379a000000000000000000000000000000000000000000000000000000000815260040161264e90613c9a565b60405180910390fd5b60026004811115612691577f4e487b7100000000000000000000000000000000000000000000000000000000600052602160045260246000fd5b8160048111156126ca577f4e487b7100000000000000000000000000000000000000000000000000000000600052602160045260246000fd5b141561270b576040517f08c379a000000000000000000000000000000000000000000000000000000000815260040161270290613cda565b60405180910390fd5b60036004811115612745577f4e487b7100000000000000000000000000000000000000000000000000000000600052602160045260246000fd5b81600481111561277e577f4e487b7100000000000000000000000000000000000000000000000000000000600052602160045260246000fd5b14156127bf576040517f08c379a00000000000000000000000000000000000000000000000000000000081526004016127b690613e3a565b60405180910390fd5b6004808111156127f8577f4e487b7100000000000000000000000000000000000000000000000000000000600052602160045260246000fd5b816004811115612831577f4e487b7100000000000000000000000000000000000000000000000000000000600052602160045260246000fd5b1415612872576040517f08c379a000000000000000000000000000000000000000000000000000000000815260040161286990613e7a565b60405180910390fd5b5b50565b6128808383612ef2565b61288d60008484846128d1565b6128cc576040517f08c379a00000000000000000000000000000000000000000000000000000000081526004016128c390613d3a565b60405180910390fd5b505050565b60006128f28473ffffffffffffffffffffffffffffffffffffffff166130cc565b15612a5b578373ffffffffffffffffffffffffffffffffffffffff1663150b7a0261291b6119c7565b8786866040518563ffffffff1660e01b815260040161293d9493929190613b8f565b602060405180830381600087803b15801561295757600080fd5b505af192505050801561298857506040513d601f19601f82011682018060405250810190612985919061349b565b60015b612a0b573d80600081146129b8576040519150601f19603f3d011682016040523d82523d6000602084013e6129bd565b606091505b50600081511415612a03576040517f08c379a00000000000000000000000000000000000000000000000000000000081526004016129fa90613d3a565b60405180910390fd5b805181602001fd5b63150b7a0260e01b7bffffffffffffffffffffffffffffffffffffffffffffffffffffffff1916817bffffffffffffffffffffffffffffffffffffffffffffffffffffffff191614915050612a60565b600190505b949350505050565b505050565b6008805490506009600083815260200190815260200160002081905550600881908060018154018082558091505060019003906000526020600020016000909190919091505550565b60006001612ac3846110a3565b612acd91906141b9565b9050600060076000848152602001908152602001600020549050818114612bb2576000600660008673ffffffffffffffffffffffffffffffffffffffff1673ffffffffffffffffffffffffffffffffffffffff168152602001908152602001600020600084815260200190815260200160002054905080600660008773ffffffffffffffffffffffffffffffffffffffff1673ffffffffffffffffffffffffffffffffffffffff168152602001908152602001600020600084815260200190815260200160002081905550816007600083815260200190815260200160002081905550505b6007600084815260200190815260200160002060009055600660008573ffffffffffffffffffffffffffffffffffffffff1673ffffffffffffffffffffffffffffffffffffffff16815260200190815260200160002060008381526020019081526020016000206000905550505050565b60006001600880549050612c3791906141b9565b9050600060096000848152602001908152602001600020549050600060088381548110612c8d577f4e487b7100000000000000000000000000000000000000000000000000000000600052603260045260246000fd5b906000526020600020015490508060088381548110612cd5577f4e487b7100000000000000000000000000000000000000000000000000000000600052603260045260246000fd5b906000526020600020018190555081600960008381526020019081526020016000208190555060096000858152602001908152602001600020600090556008805480612d4a577f4e487b7100000000000000000000000000000000000000000000000000000000600052603160045260246000fd5b6001900381819060005260206000200160009055905550505050565b6000612d71836110a3565b905081600660008573ffffffffffffffffffffffffffffffffffffffff1673ffffffffffffffffffffffffffffffffffffffff168152602001908152602001600020600083815260200190815260200160002081905550806007600084815260200190815260200160002081905550505050565b6000807f7fffffffffffffffffffffffffffffff5d576e7357a4501ddfe92f46681b20a08360001c1115612e20576000600391509150612ee9565b601b8560ff1614158015612e385750601c8560ff1614155b15612e4a576000600491509150612ee9565b600060018787878760405160008152602001604052604051612e6f9493929190613c18565b6020604051602081039080840390855afa158015612e91573d6000803e3d6000fd5b505050602060405103519050600073ffffffffffffffffffffffffffffffffffffffff168173ffffffffffffffffffffffffffffffffffffffff161415612ee057600060019250925050612ee9565b80600092509250505b94509492505050565b600073ffffffffffffffffffffffffffffffffffffffff168273ffffffffffffffffffffffffffffffffffffffff161415612f62576040517f08c379a0000000000000000000000000000000000000000000000000000000008152600401612f5990613eba565b60405180910390fd5b612f6b81611f3a565b15612fab576040517f08c379a0000000000000000000000000000000000000000000000000000000008152600401612fa290613d9a565b60405180910390fd5b612fb7600083836123ba565b6001600360008473ffffffffffffffffffffffffffffffffffffffff1673ffffffffffffffffffffffffffffffffffffffff168152602001908152602001600020600082825461300791906140d8565b92505081905550816002600083815260200190815260200160002060006101000a81548173ffffffffffffffffffffffffffffffffffffffff021916908373ffffffffffffffffffffffffffffffffffffffff160217905550808273ffffffffffffffffffffffffffffffffffffffff16600073ffffffffffffffffffffffffffffffffffffffff167fddf252ad1be2c89b69c2b068fc378daa952ba7f163c4a11628f55a4df523b3ef60405160405180910390a46130c8600083836124ce565b5050565b6000808273ffffffffffffffffffffffffffffffffffffffff163b119050919050565b8280546130fb906142df565b90600052602060002090601f01602090048101928261311d5760008555613164565b82601f1061313657805160ff1916838001178555613164565b82800160010185558215613164579182015b82811115613163578251825591602001919060010190613148565b5b5090506131719190613175565b5090565b5b8082111561318e576000816000905550600101613176565b5090565b60006131a56131a084613ffa565b613fd5565b9050828152602081018484840111156131bd57600080fd5b6131c884828561429d565b509392505050565b60006131e36131de8461402b565b613fd5565b9050828152602081018484840111156131fb57600080fd5b61320684828561429d565b509392505050565b60008135905061321d81614bb5565b92915050565b60008135905061323281614bcc565b92915050565b60008135905061324781614be3565b92915050565b60008151905061325c81614be3565b92915050565b600082601f83011261327357600080fd5b8135613283848260208601613192565b91505092915050565b600082601f83011261329d57600080fd5b81356132ad8482602086016131d0565b91505092915050565b6000813590506132c581614bfa565b92915050565b6000602082840312156132dd57600080fd5b60006132eb8482850161320e565b91505092915050565b6000806040838503121561330757600080fd5b60006133158582860161320e565b92505060206133268582860161320e565b9150509250929050565b60008060006060848603121561334557600080fd5b60006133538682870161320e565b93505060206133648682870161320e565b9250506040613375868287016132b6565b9150509250925092565b6000806000806080858703121561339557600080fd5b60006133a38782880161320e565b94505060206133b48782880161320e565b93505060406133c5878288016132b6565b925050606085013567ffffffffffffffff8111156133e257600080fd5b6133ee87828801613262565b91505092959194509250565b6000806040838503121561340d57600080fd5b600061341b8582860161320e565b925050602061342c85828601613223565b9150509250929050565b6000806040838503121561344957600080fd5b60006134578582860161320e565b9250506020613468858286016132b6565b9150509250929050565b60006020828403121561348457600080fd5b600061349284828501613238565b91505092915050565b6000602082840312156134ad57600080fd5b60006134bb8482850161324d565b91505092915050565b6000602082840312156134d657600080fd5b600082013567ffffffffffffffff8111156134f057600080fd5b6134fc84828501613262565b91505092915050565b60006020828403121561351757600080fd5b600082013567ffffffffffffffff81111561353157600080fd5b61353d8482850161328c565b91505092915050565b60006020828403121561355857600080fd5b6000613566848285016132b6565b91505092915050565b600061357b8383613ad2565b60208301905092915050565b613590816141ed565b82525050565b60006135a18261406c565b6135ab818561409a565b93506135b68361405c565b8060005b838110156135e75781516135ce888261356f565b97506135d98361408d565b9250506001810190506135ba565b5085935050505092915050565b6135fd816141ff565b82525050565b61360c8161420b565b82525050565b61362361361e8261420b565b61438b565b82525050565b600061363482614077565b61363e81856140ab565b935061364e8185602086016142ac565b613657816144b1565b840191505092915050565b61366b8161428b565b82525050565b600061367c82614082565b61368681856140bc565b93506136968185602086016142ac565b61369f816144b1565b840191505092915050565b60006136b582614082565b6136bf81856140cd565b93506136cf8185602086016142ac565b80840191505092915050565b60006136e86018836140bc565b91506136f3826144c2565b602082019050919050565b600061370b6013836140bc565b9150613716826144eb565b602082019050919050565b600061372e601f836140bc565b915061373982614514565b602082019050919050565b6000613751601c836140cd565b915061375c8261453d565b601c82019050919050565b60006137746027836140bc565b915061377f82614566565b604082019050919050565b6000613797602b836140bc565b91506137a2826145b5565b604082019050919050565b60006137ba6032836140bc565b91506137c582614604565b604082019050919050565b60006137dd6026836140bc565b91506137e882614653565b604082019050919050565b60006138006025836140bc565b915061380b826146a2565b604082019050919050565b6000613823601c836140bc565b915061382e826146f1565b602082019050919050565b60006138466024836140bc565b91506138518261471a565b604082019050919050565b60006138696019836140bc565b915061387482614769565b602082019050919050565b600061388c6019836140bc565b915061389782614792565b602082019050919050565b60006138af601f836140bc565b91506138ba826147bb565b602082019050919050565b60006138d26022836140bc565b91506138dd826147e4565b604082019050919050565b60006138f56029836140bc565b915061390082614833565b604082019050919050565b6000613918600a836140cd565b915061392382614882565b600a82019050919050565b600061393b6022836140bc565b9150613946826148ab565b604082019050919050565b600061395e603e836140bc565b9150613969826148fa565b604082019050919050565b60006139816020836140bc565b915061398c82614949565b602082019050919050565b60006139a46005836140cd565b91506139af82614972565b600582019050919050565b60006139c76020836140bc565b91506139d28261499b565b602082019050919050565b60006139ea602f836140bc565b91506139f5826149c4565b604082019050919050565b6000613a0d6018836140bc565b9150613a1882614a13565b602082019050919050565b6000613a306021836140bc565b9150613a3b82614a3c565b604082019050919050565b6000613a53602c836140bc565b9150613a5e82614a8b565b604082019050919050565b6000613a766028836140bc565b9150613a8182614ada565b604082019050919050565b6000613a99602e836140bc565b9150613aa482614b29565b604082019050919050565b6000613abc6001836140cd565b9150613ac782614b78565b600182019050919050565b613adb81614274565b82525050565b613aea81614274565b82525050565b613af98161427e565b82525050565b6000613b0b82856136aa565b9150613b1682613aaf565b9150613b2282846136aa565b9150613b2d82613997565b91508190509392505050565b6000613b4482613744565b9150613b508284613612565b60208201915081905092915050565b6000613b6a8261390b565b9150819050919050565b6000602082019050613b896000830184613587565b92915050565b6000608082019050613ba46000830187613587565b613bb16020830186613587565b613bbe6040830185613ae1565b8181036060830152613bd08184613629565b905095945050505050565b60006020820190508181036000830152613bf58184613596565b905092915050565b6000602082019050613c1260008301846135f4565b92915050565b6000608082019050613c2d6000830187613603565b613c3a6020830186613af0565b613c476040830185613603565b613c546060830184613603565b95945050505050565b6000602082019050613c726000830184613662565b92915050565b60006020820190508181036000830152613c928184613671565b905092915050565b60006020820190508181036000830152613cb3816136db565b9050919050565b60006020820190508181036000830152613cd3816136fe565b9050919050565b60006020820190508181036000830152613cf381613721565b9050919050565b60006020820190508181036000830152613d1381613767565b9050919050565b60006020820190508181036000830152613d338161378a565b9050919050565b60006020820190508181036000830152613d53816137ad565b9050919050565b60006020820190508181036000830152613d73816137d0565b9050919050565b60006020820190508181036000830152613d93816137f3565b9050919050565b60006020820190508181036000830152613db381613816565b9050919050565b60006020820190508181036000830152613dd381613839565b9050919050565b60006020820190508181036000830152613df38161385c565b9050919050565b60006020820190508181036000830152613e138161387f565b9050919050565b60006020820190508181036000830152613e33816138a2565b9050919050565b60006020820190508181036000830152613e53816138c5565b9050919050565b60006020820190508181036000830152613e73816138e8565b9050919050565b60006020820190508181036000830152613e938161392e565b9050919050565b60006020820190508181036000830152613eb381613951565b9050919050565b60006020820190508181036000830152613ed381613974565b9050919050565b60006020820190508181036000830152613ef3816139ba565b9050919050565b60006020820190508181036000830152613f13816139dd565b9050919050565b60006020820190508181036000830152613f3381613a00565b9050919050565b60006020820190508181036000830152613f5381613a23565b9050919050565b60006020820190508181036000830152613f7381613a46565b9050919050565b60006020820190508181036000830152613f9381613a69565b9050919050565b60006020820190508181036000830152613fb381613a8c565b9050919050565b6000602082019050613fcf6000830184613ae1565b92915050565b6000613fdf613ff0565b9050613feb8282614311565b919050565b6000604051905090565b600067ffffffffffffffff82111561401557614014614482565b5b61401e826144b1565b9050602081019050919050565b600067ffffffffffffffff82111561404657614045614482565b5b61404f826144b1565b9050602081019050919050565b6000819050602082019050919050565b600081519050919050565b600081519050919050565b600081519050919050565b6000602082019050919050565b600082825260208201905092915050565b600082825260208201905092915050565b600082825260208201905092915050565b600081905092915050565b60006140e382614274565b91506140ee83614274565b9250827fffffffffffffffffffffffffffffffffffffffffffffffffffffffffffffffff03821115614123576141226143c6565b5b828201905092915050565b600061413982614274565b915061414483614274565b925082614154576141536143f5565b5b828204905092915050565b600061416a82614274565b915061417583614274565b9250817fffffffffffffffffffffffffffffffffffffffffffffffffffffffffffffffff04831182151516156141ae576141ad6143c6565b5b828202905092915050565b60006141c482614274565b91506141cf83614274565b9250828210156141e2576141e16143c6565b5b828203905092915050565b60006141f882614254565b9050919050565b60008115159050919050565b6000819050919050565b60007fffffffff0000000000000000000000000000000000000000000000000000000082169050919050565b600081905061424f82614ba1565b919050565b600073ffffffffffffffffffffffffffffffffffffffff82169050919050565b6000819050919050565b600060ff82169050919050565b600061429682614241565b9050919050565b82818337600083830152505050565b60005b838110156142ca5780820151818401526020810190506142af565b838111156142d9576000848401525b50505050565b600060028204905060018216806142f757607f821691505b6020821081141561430b5761430a614453565b5b50919050565b61431a826144b1565b810181811067ffffffffffffffff8211171561433957614338614482565b5b80604052505050565b600061434d82614274565b91507fffffffffffffffffffffffffffffffffffffffffffffffffffffffffffffffff8214156143805761437f6143c6565b5b600182019050919050565b6000819050919050565b60006143a082614274565b91506143ab83614274565b9250826143bb576143ba6143f5565b5b828206905092915050565b7f4e487b7100000000000000000000000000000000000000000000000000000000600052601160045260246000fd5b7f4e487b7100000000000000000000000000000000000000000000000000000000600052601260045260246000fd5b7f4e487b7100000000000000000000000000000000000000000000000000000000600052602160045260246000fd5b7f4e487b7100000000000000000000000000000000000000000000000000000000600052602260045260246000fd5b7f4e487b7100000000000000000000000000000000000000000000000000000000600052604160045260246000fd5b6000601f19601f8301169050919050565b7f45434453413a20696e76616c6964207369676e61747572650000000000000000600082015250565b7f53616c65206d7573742062652061637469766500000000000000000000000000600082015250565b7f45434453413a20696e76616c6964207369676e6174757265206c656e67746800600082015250565b7f19457468657265756d205369676e6564204d6573736167653a0a333200000000600082015250565b7f506c6561736520706179206163636f7264696e6720746f20746865206974656d60008201527f2070726963652e00000000000000000000000000000000000000000000000000602082015250565b7f455243373231456e756d657261626c653a206f776e657220696e646578206f7560008201527f74206f6620626f756e6473000000000000000000000000000000000000000000602082015250565b7f4552433732313a207472616e7366657220746f206e6f6e20455243373231526560008201527f63656976657220696d706c656d656e7465720000000000000000000000000000602082015250565b7f4f776e61626c653a206e6577206f776e657220697320746865207a65726f206160008201527f6464726573730000000000000000000000000000000000000000000000000000602082015250565b7f4552433732313a207472616e736665722066726f6d20696e636f72726563742060008201527f6f776e6572000000000000000000000000000000000000000000000000000000602082015250565b7f4552433732313a20746f6b656e20616c7265616479206d696e74656400000000600082015250565b7f4552433732313a207472616e7366657220746f20746865207a65726f2061646460008201527f7265737300000000000000000000000000000000000000000000000000000000602082015250565b7f4552433732313a20617070726f766520746f2063616c6c657200000000000000600082015250565b7f4d757374206e65656420796f7572207369676e61747572652e00000000000000600082015250565b7f45746865722076616c75652073656e74206973206e6f7420636f727265637400600082015250565b7f45434453413a20696e76616c6964207369676e6174757265202773272076616c60008201527f7565000000000000000000000000000000000000000000000000000000000000602082015250565b7f4552433732313a2061646472657373207a65726f206973206e6f74206120766160008201527f6c6964206f776e65720000000000000000000000000000000000000000000000602082015250565b7f48656c6c6f576f726c6400000000000000000000000000000000000000000000600082015250565b7f45434453413a20696e76616c6964207369676e6174757265202776272076616c60008201527f7565000000000000000000000000000000000000000000000000000000000000602082015250565b7f4552433732313a20617070726f76652063616c6c6572206973206e6f7420746f60008201527f6b656e206f776e6572206e6f7220617070726f76656420666f7220616c6c0000602082015250565b7f4552433732313a206d696e7420746f20746865207a65726f2061646472657373600082015250565b7f2e6a736f6e000000000000000000000000000000000000000000000000000000600082015250565b7f4f776e61626c653a2063616c6c6572206973206e6f7420746865206f776e6572600082015250565b7f4552433732314d657461646174613a2055524920717565727920666f72206e6f60008201527f6e6578697374656e7420746f6b656e0000000000000000000000000000000000602082015250565b7f4552433732313a20696e76616c696420746f6b656e2049440000000000000000600082015250565b7f4552433732313a20617070726f76616c20746f2063757272656e74206f776e6560008201527f7200000000000000000000000000000000000000000000000000000000000000602082015250565b7f455243373231456e756d657261626c653a20676c6f62616c20696e646578206f60008201527f7574206f6620626f756e64730000000000000000000000000000000000000000602082015250565b7f596f752063616e206f6e6c792061646f707420312042696742656e46756e206160008201527f7420612074696d65000000000000000000000000000000000000000000000000602082015250565b7f4552433732313a2063616c6c6572206973206e6f7420746f6b656e206f776e6560008201527f72206e6f7220617070726f766564000000000000000000000000000000000000602082015250565b7f2f00000000000000000000000000000000000000000000000000000000000000600082015250565b60038110614bb257614bb1614424565b5b50565b614bbe816141ed565b8114614bc957600080fd5b50565b614bd5816141ff565b8114614be057600080fd5b50565b614bec81614215565b8114614bf757600080fd5b50565b614c0381614274565b8114614c0e57600080fd5b5056fea2646970667358221220966bc3d4a4c4e832db3d44e465c16a9bea7d96199b480bfe5c5ffc90b8c7deb164736f6c63430008040033697066733a2f2f516d6569694a6f756439374667426e6d726a6961486b365072426f6948446b61575046666f6f6e47334877355455",
  "linkReferences": {},
  "deployedLinkReferences": {}
}