{
  "_format": "hh-sol-artifact-1",
  "contractName": "SimplePayAndNFT",
  "sourceName": "contracts/SimplePayAndNFT.sol",
  "abi": [
    {
      "inputs": [],
      "stateMutability": "payable",
      "type": "constructor"
    },
    {
      "anonymous": false,
      "inputs": [],
      "name": "Aborted",
      "type": "event"
    },
    {
      "anonymous": false,
      "inputs": [
        {
          "indexed": true,
          "internalType": "address",
          "name": "owner",
          "type": "address"
        },
        {
          "indexed": true,
          "internalType": "address",
          "name": "approved",
          "type": "address"
        },
        {
          "indexed": true,
          "internalType": "uint256",
          "name": "tokenId",
          "type": "uint256"
        }
      ],
      "name": "Approval",
      "type": "event"
    },
    {
      "anonymous": false,
      "inputs": [
        {
          "indexed": true,
          "internalType": "address",
          "name": "owner",
          "type": "address"
        },
        {
          "indexed": true,
          "internalType": "address",
          "name": "operator",
          "type": "address"
        },
        {
          "indexed": false,
          "internalType": "bool",
          "name": "approved",
          "type": "bool"
        }
      ],
      "name": "ApprovalForAll",
      "type": "event"
    },
    {
      "anonymous": false,
      "inputs": [],
      "name": "ItemReceived",
      "type": "event"
    },
    {
      "anonymous": false,
      "inputs": [
        {
          "indexed": true,
          "internalType": "address",
          "name": "previousOwner",
          "type": "address"
        },
        {
          "indexed": true,
          "internalType": "address",
          "name": "newOwner",
          "type": "address"
        }
      ],
      "name": "OwnershipTransferred",
      "type": "event"
    },
    {
      "anonymous": false,
      "inputs": [],
      "name": "PurchaseConfirmed",
      "type": "event"
    },
    {
      "anonymous": false,
      "inputs": [
        {
          "indexed": true,
          "internalType": "address",
          "name": "from",
          "type": "address"
        },
        {
          "indexed": true,
          "internalType": "address",
          "name": "to",
          "type": "address"
        },
        {
          "indexed": true,
          "internalType": "uint256",
          "name": "tokenId",
          "type": "uint256"
        }
      ],
      "name": "Transfer",
      "type": "event"
    },
    {
      "inputs": [
        {
          "internalType": "address",
          "name": "to",
          "type": "address"
        },
        {
          "internalType": "uint256",
          "name": "tokenId",
          "type": "uint256"
        }
      ],
      "name": "approve",
      "outputs": [],
      "stateMutability": "nonpayable",
      "type": "function"
    },
    {
      "inputs": [
        {
          "internalType": "address",
          "name": "owner",
          "type": "address"
        }
      ],
      "name": "balanceOf",
      "outputs": [
        {
          "internalType": "uint256",
          "name": "",
          "type": "uint256"
        }
      ],
      "stateMutability": "view",
      "type": "function"
    },
    {
      "inputs": [],
      "name": "baseURI",
      "outputs": [
        {
          "internalType": "string",
          "name": "",
          "type": "string"
        }
      ],
      "stateMutability": "view",
      "type": "function"
    },
    {
      "inputs": [],
      "name": "buyer",
      "outputs": [
        {
          "internalType": "address",
          "name": "",
          "type": "address"
        }
      ],
      "stateMutability": "view",
      "type": "function"
    },
    {
      "inputs": [],
      "name": "cost",
      "outputs": [
        {
          "internalType": "uint256",
          "name": "",
          "type": "uint256"
        }
      ],
      "stateMutability": "view",
      "type": "function"
    },
    {
      "inputs": [],
      "name": "deposit",
      "outputs": [],
      "stateMutability": "payable",
      "type": "function"
    },
    {
      "inputs": [
        {
          "internalType": "uint256",
          "name": "tokenId",
          "type": "uint256"
        }
      ],
      "name": "getApproved",
      "outputs": [
        {
          "internalType": "address",
          "name": "",
          "type": "address"
        }
      ],
      "stateMutability": "view",
      "type": "function"
    },
    {
      "inputs": [],
      "name": "getBalance",
      "outputs": [
        {
          "internalType": "uint256",
          "name": "",
          "type": "uint256"
        }
      ],
      "stateMutability": "view",
      "type": "function"
    },
    {
      "inputs": [
        {
          "internalType": "address",
          "name": "owner",
          "type": "address"
        },
        {
          "internalType": "address",
          "name": "operator",
          "type": "address"
        }
      ],
      "name": "isApprovedForAll",
      "outputs": [
        {
          "internalType": "bool",
          "name": "",
          "type": "bool"
        }
      ],
      "stateMutability": "view",
      "type": "function"
    },
    {
      "inputs": [
        {
          "internalType": "bytes",
          "name": "_signature",
          "type": "bytes"
        }
      ],
      "name": "isMessageVaild",
      "outputs": [
        {
          "internalType": "bool",
          "name": "",
          "type": "bool"
        }
      ],
      "stateMutability": "view",
      "type": "function"
    },
    {
      "inputs": [
        {
          "internalType": "uint256",
          "name": "productPrice",
          "type": "uint256"
        }
      ],
      "name": "itemcost",
      "outputs": [],
      "stateMutability": "payable",
      "type": "function"
    },
    {
      "inputs": [],
      "name": "maxMintAmount",
      "outputs": [
        {
          "internalType": "uint256",
          "name": "",
          "type": "uint256"
        }
      ],
      "stateMutability": "view",
      "type": "function"
    },
    {
      "inputs": [],
      "name": "maxSupply",
      "outputs": [
        {
          "internalType": "uint256",
          "name": "",
          "type": "uint256"
        }
      ],
      "stateMutability": "view",
      "type": "function"
    },
    {
      "inputs": [
        {
          "internalType": "uint256",
          "name": "_mintAmount",
          "type": "uint256"
        }
      ],
      "name": "mint",
      "outputs": [],
      "stateMutability": "payable",
      "type": "function"
    },
    {
      "inputs": [],
      "name": "name",
      "outputs": [
        {
          "internalType": "string",
          "name": "",
          "type": "string"
        }
      ],
      "stateMutability": "view",
      "type": "function"
    },
    {
      "inputs": [],
      "name": "owner",
      "outputs": [
        {
          "internalType": "address",
          "name": "",
          "type": "address"
        }
      ],
      "stateMutability": "view",
      "type": "function"
    },
    {
      "inputs": [
        {
          "internalType": "uint256",
          "name": "tokenId",
          "type": "uint256"
        }
      ],
      "name": "ownerOf",
      "outputs": [
        {
          "internalType": "address",
          "name": "",
          "type": "address"
        }
      ],
      "stateMutability": "view",
      "type": "function"
    },
    {
      "inputs": [],
      "name": "pause",
      "outputs": [],
      "stateMutability": "nonpayable",
      "type": "function"
    },
    {
      "inputs": [],
      "name": "paused",
      "outputs": [
        {
          "internalType": "bool",
          "name": "",
          "type": "bool"
        }
      ],
      "stateMutability": "view",
      "type": "function"
    },
    {
      "inputs": [],
      "name": "price",
      "outputs": [
        {
          "internalType": "uint256",
          "name": "",
          "type": "uint256"
        }
      ],
      "stateMutability": "view",
      "type": "function"
    },
    {
      "inputs": [],
      "name": "renounceOwnership",
      "outputs": [],
      "stateMutability": "nonpayable",
      "type": "function"
    },
    {
      "inputs": [
        {
          "internalType": "address",
          "name": "from",
          "type": "address"
        },
        {
          "internalType": "address",
          "name": "to",
          "type": "address"
        },
        {
          "internalType": "uint256",
          "name": "tokenId",
          "type": "uint256"
        }
      ],
      "name": "safeTransferFrom",
      "outputs": [],
      "stateMutability": "nonpayable",
      "type": "function"
    },
    {
      "inputs": [
        {
          "internalType": "address",
          "name": "from",
          "type": "address"
        },
        {
          "internalType": "address",
          "name": "to",
          "type": "address"
        },
        {
          "internalType": "uint256",
          "name": "tokenId",
          "type": "uint256"
        },
        {
          "internalType": "bytes",
          "name": "data",
          "type": "bytes"
        }
      ],
      "name": "safeTransferFrom",
      "outputs": [],
      "stateMutability": "nonpayable",
      "type": "function"
    },
    {
      "inputs": [],
      "name": "seller",
      "outputs": [
        {
          "internalType": "address",
          "name": "",
          "type": "address"
        }
      ],
      "stateMutability": "view",
      "type": "function"
    },
    {
      "inputs": [
        {
          "internalType": "address",
          "name": "operator",
          "type": "address"
        },
        {
          "internalType": "bool",
          "name": "approved",
          "type": "bool"
        }
      ],
      "name": "setApprovalForAll",
      "outputs": [],
      "stateMutability": "nonpayable",
      "type": "function"
    },
    {
      "inputs": [
        {
          "internalType": "string",
          "name": "_newBaseURI",
          "type": "string"
        }
      ],
      "name": "setBaseURI",
      "outputs": [],
      "stateMutability": "nonpayable",
      "type": "function"
    },
    {
      "inputs": [
        {
          "internalType": "uint256",
          "name": "_newCost",
          "type": "uint256"
        }
      ],
      "name": "setCost",
      "outputs": [],
      "stateMutability": "nonpayable",
      "type": "function"
    },
    {
      "inputs": [
        {
          "internalType": "uint256",
          "name": "_newMaxSupply",
          "type": "uint256"
        }
      ],
      "name": "setMaxSupply",
      "outputs": [],
      "stateMutability": "nonpayable",
      "type": "function"
    },
    {
      "inputs": [
        {
          "internalType": "uint256",
          "name": "_newmaxMintAmount",
          "type": "uint256"
        }
      ],
      "name": "setmaxMintAmount",
      "outputs": [],
      "stateMutability": "nonpayable",
      "type": "function"
    },
    {
      "inputs": [],
      "name": "state",
      "outputs": [
        {
          "internalType": "enum SimplePayAndNFT.State",
          "name": "",
          "type": "uint8"
        }
      ],
      "stateMutability": "view",
      "type": "function"
    },
    {
      "inputs": [
        {
          "internalType": "bytes4",
          "name": "interfaceId",
          "type": "bytes4"
        }
      ],
      "name": "supportsInterface",
      "outputs": [
        {
          "internalType": "bool",
          "name": "",
          "type": "bool"
        }
      ],
      "stateMutability": "view",
      "type": "function"
    },
    {
      "inputs": [],
      "name": "symbol",
      "outputs": [
        {
          "internalType": "string",
          "name": "",
          "type": "string"
        }
      ],
      "stateMutability": "view",
      "type": "function"
    },
    {
      "inputs": [
        {
          "internalType": "uint256",
          "name": "index",
          "type": "uint256"
        }
      ],
      "name": "tokenByIndex",
      "outputs": [
        {
          "internalType": "uint256",
          "name": "",
          "type": "uint256"
        }
      ],
      "stateMutability": "view",
      "type": "function"
    },
    {
      "inputs": [
        {
          "internalType": "address",
          "name": "owner",
          "type": "address"
        },
        {
          "internalType": "uint256",
          "name": "index",
          "type": "uint256"
        }
      ],
      "name": "tokenOfOwnerByIndex",
      "outputs": [
        {
          "internalType": "uint256",
          "name": "",
          "type": "uint256"
        }
      ],
      "stateMutability": "view",
      "type": "function"
    },
    {
      "inputs": [
        {
          "internalType": "uint256",
          "name": "tokenId",
          "type": "uint256"
        }
      ],
      "name": "tokenURI",
      "outputs": [
        {
          "internalType": "string",
          "name": "",
          "type": "string"
        }
      ],
      "stateMutability": "view",
      "type": "function"
    },
    {
      "inputs": [],
      "name": "totalSupply",
      "outputs": [
        {
          "internalType": "uint256",
          "name": "",
          "type": "uint256"
        }
      ],
      "stateMutability": "view",
      "type": "function"
    },
    {
      "inputs": [
        {
          "internalType": "address",
          "name": "from",
          "type": "address"
        },
        {
          "internalType": "address",
          "name": "to",
          "type": "address"
        },
        {
          "internalType": "uint256",
          "name": "tokenId",
          "type": "uint256"
        }
      ],
      "name": "transferFrom",
      "outputs": [],
      "stateMutability": "nonpayable",
      "type": "function"
    },
    {
      "inputs": [
        {
          "internalType": "address",
          "name": "newOwner",
          "type": "address"
        }
      ],
      "name": "transferOwnership",
      "outputs": [],
      "stateMutability": "nonpayable",
      "type": "function"
    },
    {
      "inputs": [
        {
          "internalType": "address",
          "name": "_owner",
          "type": "address"
        }
      ],
      "name": "walletOfOwner",
      "outputs": [
        {
          "internalType": "uint256[]",
          "name": "",
          "type": "uint256[]"
        }
      ],
      "stateMutability": "view",
      "type": "function"
    }
  ],
  "bytecode": "0x608060405260405180606001604052806035815260200162004e3960359139600c9080519060200190620000359291906200024d565b506000600d60006101000a81548160ff02191690831515021790555064e8d4a51000600e556010600f55600360105573c98e9c69119eb0b764b0d5dcbc1532de8bfc2d4f601260006101000a81548173ffffffffffffffffffffffffffffffffffffffff021916908373ffffffffffffffffffffffffffffffffffffffff1602179055506040518060400160405280600a81526020017f53686f70436f696e5432000000000000000000000000000000000000000000008152506040518060400160405280600481526020017f534354320000000000000000000000000000000000000000000000000000000081525081600090805190602001906200013d9291906200024d565b508060019080519060200190620001569291906200024d565b505050620001796200016d6200017f60201b60201c565b6200018760201b60201c565b62000362565b600033905090565b6000600a60009054906101000a900473ffffffffffffffffffffffffffffffffffffffff16905081600a60006101000a81548173ffffffffffffffffffffffffffffffffffffffff021916908373ffffffffffffffffffffffffffffffffffffffff1602179055508173ffffffffffffffffffffffffffffffffffffffff168173ffffffffffffffffffffffffffffffffffffffff167f8be0079c531659141344cd1fd0a4f28419497f9722a3daafe3b4186f6b6457e060405160405180910390a35050565b8280546200025b90620002fd565b90600052602060002090601f0160209004810192826200027f5760008555620002cb565b82601f106200029a57805160ff1916838001178555620002cb565b82800160010185558215620002cb579182015b82811115620002ca578251825591602001919060010190620002ad565b5b509050620002da9190620002de565b5090565b5b80821115620002f9576000816000905550600101620002df565b5090565b600060028204905060018216806200031657607f821691505b602082108114156200032d576200032c62000333565b5b50919050565b7f4e487b7100000000000000000000000000000000000000000000000000000000600052602260045260246000fd5b614ac780620003726000396000f3fe6080604052600436106102305760003560e01c80636c0360eb1161012e578063a035b1fe116100ab578063c87b56dd1161006f578063c87b56dd14610823578063d0e30db014610860578063d5abeb011461086a578063e985e9c514610895578063f2fde38b146108d257610230565b8063a035b1fe1461075f578063a0712d681461078a578063a22cb465146107a6578063b88d4fde146107cf578063c19d93fb146107f857610230565b80637f00c7a6116100f25780637f00c7a6146106ad57806382e7ca34146106d65780638456cb59146106f25780638da5cb5b1461070957806395d89b411461073457610230565b80636c0360eb146105da5780636f8b44b01461060557806370a082311461062e578063715018a61461066b5780637150d8ae1461068257610230565b806323b872dd116101bc57806344a0d68a1161018057806344a0d68a146104e35780634f6ccce71461050c57806355f804b3146105495780635c975abb146105725780636352211e1461059d57610230565b806323b872dd146103da57806328308398146104035780632f745c591461044057806342842e0e1461047d578063438b6300146104a657610230565b8063095ea7b311610203578063095ea7b31461030557806312065fe01461032e57806313faede61461035957806318160ddd14610384578063239c70ae146103af57610230565b806301ffc9a71461023557806306fdde0314610272578063081812fc1461029d57806308551a53146102da575b600080fd5b34801561024157600080fd5b5061025c600480360381019061025791906133f0565b6108fb565b6040516102699190613b35565b60405180910390f35b34801561027e57600080fd5b50610287610975565b6040516102949190613bb0565b60405180910390f35b3480156102a957600080fd5b506102c460048036038101906102bf91906134c4565b610a07565b6040516102d19190613aac565b60405180910390f35b3480156102e657600080fd5b506102ef610a4d565b6040516102fc9190613aac565b60405180910390f35b34801561031157600080fd5b5061032c600480360381019061032791906133b4565b610a73565b005b34801561033a57600080fd5b50610343610b8b565b6040516103509190613eb2565b60405180910390f35b34801561036557600080fd5b5061036e610b93565b60405161037b9190613eb2565b60405180910390f35b34801561039057600080fd5b50610399610b99565b6040516103a69190613eb2565b60405180910390f35b3480156103bb57600080fd5b506103c4610ba3565b6040516103d19190613eb2565b60405180910390f35b3480156103e657600080fd5b5061040160048036038101906103fc91906132ae565b610ba9565b005b34801561040f57600080fd5b5061042a60048036038101906104259190613442565b610c09565b6040516104379190613b35565b60405180910390f35b34801561044c57600080fd5b50610467600480360381019061046291906133b4565b610ca2565b6040516104749190613eb2565b60405180910390f35b34801561048957600080fd5b506104a4600480360381019061049f91906132ae565b610d47565b005b3480156104b257600080fd5b506104cd60048036038101906104c89190613249565b610d67565b6040516104da9190613b13565b60405180910390f35b3480156104ef57600080fd5b5061050a600480360381019061050591906134c4565b610e61565b005b34801561051857600080fd5b50610533600480360381019061052e91906134c4565b610e73565b6040516105409190613eb2565b60405180910390f35b34801561055557600080fd5b50610570600480360381019061056b9190613483565b610f0a565b005b34801561057e57600080fd5b50610587610f2c565b6040516105949190613b35565b60405180910390f35b3480156105a957600080fd5b506105c460048036038101906105bf91906134c4565b610f3f565b6040516105d19190613aac565b60405180910390f35b3480156105e657600080fd5b506105ef610ff1565b6040516105fc9190613bb0565b60405180910390f35b34801561061157600080fd5b5061062c600480360381019061062791906134c4565b61107f565b005b34801561063a57600080fd5b5061065560048036038101906106509190613249565b611091565b6040516106629190613eb2565b60405180910390f35b34801561067757600080fd5b50610680611149565b005b34801561068e57600080fd5b5061069761115d565b6040516106a49190613aac565b60405180910390f35b3480156106b957600080fd5b506106d460048036038101906106cf91906134c4565b611183565b005b6106f060048036038101906106eb91906134c4565b611195565b005b3480156106fe57600080fd5b506107076111ae565b005b34801561071557600080fd5b5061071e6111e2565b60405161072b9190613aac565b60405180910390f35b34801561074057600080fd5b5061074961120c565b6040516107569190613bb0565b60405180910390f35b34801561076b57600080fd5b5061077461129e565b6040516107819190613eb2565b60405180910390f35b6107a4600480360381019061079f91906134c4565b6112a4565b005b3480156107b257600080fd5b506107cd60048036038101906107c89190613378565b6113d8565b005b3480156107db57600080fd5b506107f660048036038101906107f191906132fd565b6113ee565b005b34801561080457600080fd5b5061080d611450565b60405161081a9190613b95565b60405180910390f35b34801561082f57600080fd5b5061084a600480360381019061084591906134c4565b611463565b6040516108579190613bb0565b60405180910390f35b61086861158d565b005b34801561087657600080fd5b5061087f6116fa565b60405161088c9190613eb2565b60405180910390f35b3480156108a157600080fd5b506108bc60048036038101906108b79190613272565b611700565b6040516108c99190613b35565b60405180910390f35b3480156108de57600080fd5b506108f960048036038101906108f49190613249565b611794565b005b60007f780e9d63000000000000000000000000000000000000000000000000000000007bffffffffffffffffffffffffffffffffffffffffffffffffffffffff1916827bffffffffffffffffffffffffffffffffffffffffffffffffffffffff1916148061096e575061096d82611818565b5b9050919050565b606060008054610984906141d7565b80601f01602080910402602001604051908101604052809291908181526020018280546109b0906141d7565b80156109fd5780601f106109d2576101008083540402835291602001916109fd565b820191906000526020600020905b8154815290600101906020018083116109e057829003601f168201915b5050505050905090565b6000610a12826118fa565b6004600083815260200190815260200160002060009054906101000a900473ffffffffffffffffffffffffffffffffffffffff169050919050565b601260009054906101000a900473ffffffffffffffffffffffffffffffffffffffff1681565b6000610a7e82610f3f565b90508073ffffffffffffffffffffffffffffffffffffffff168373ffffffffffffffffffffffffffffffffffffffff161415610aef576040517f08c379a0000000000000000000000000000000000000000000000000000000008152600401610ae690613e52565b60405180910390fd5b8073ffffffffffffffffffffffffffffffffffffffff16610b0e611945565b73ffffffffffffffffffffffffffffffffffffffff161480610b3d5750610b3c81610b37611945565b611700565b5b610b7c576040517f08c379a0000000000000000000000000000000000000000000000000000000008152600401610b7390613db2565b60405180910390fd5b610b86838361194d565b505050565b600047905090565b600e5481565b6000600f54905090565b60105481565b610bba610bb4611945565b82611a06565b610bf9576040517f08c379a0000000000000000000000000000000000000000000000000000000008152600401610bf090613e92565b60405180910390fd5b610c04838383611a9b565b505050565b600080604051602001610c1b90613a97565b60405160208183030381529060405290506000818051906020012090506000610c4382611d02565b90506000610c518287611d32565b90508073ffffffffffffffffffffffffffffffffffffffff163373ffffffffffffffffffffffffffffffffffffffff161415610c94576001945050505050610c9d565b60009450505050505b919050565b6000610cad83611091565b8210610cee576040517f08c379a0000000000000000000000000000000000000000000000000000000008152600401610ce590613c52565b60405180910390fd5b600660008473ffffffffffffffffffffffffffffffffffffffff1673ffffffffffffffffffffffffffffffffffffffff168152602001908152602001600020600083815260200190815260200160002054905092915050565b610d62838383604051806020016040528060008152506113ee565b505050565b60606000610d7483611091565b905060008167ffffffffffffffff811115610db8577f4e487b7100000000000000000000000000000000000000000000000000000000600052604160045260246000fd5b604051908082528060200260200182016040528015610de65781602001602082028036833780820191505090505b50905060005b82811015610e5657610dfe8582610ca2565b828281518110610e37577f4e487b7100000000000000000000000000000000000000000000000000000000600052603260045260246000fd5b6020026020010181815250508080610e4e9061423a565b915050610dec565b508092505050919050565b610e69611d59565b80600e8190555050565b6000610e7d611dd7565b8210610ebe576040517f08c379a0000000000000000000000000000000000000000000000000000000008152600401610eb590613e72565b60405180910390fd5b60088281548110610ef8577f4e487b7100000000000000000000000000000000000000000000000000000000600052603260045260246000fd5b90600052602060002001549050919050565b610f12611d59565b80600c9080519060200190610f2892919061306d565b5050565b600d60009054906101000a900460ff1681565b6000806002600084815260200190815260200160002060009054906101000a900473ffffffffffffffffffffffffffffffffffffffff169050600073ffffffffffffffffffffffffffffffffffffffff168173ffffffffffffffffffffffffffffffffffffffff161415610fe8576040517f08c379a0000000000000000000000000000000000000000000000000000000008152600401610fdf90613e32565b60405180910390fd5b80915050919050565b600c8054610ffe906141d7565b80601f016020809104026020016040519081016040528092919081815260200182805461102a906141d7565b80156110775780601f1061104c57610100808354040283529160200191611077565b820191906000526020600020905b81548152906001019060200180831161105a57829003601f168201915b505050505081565b611087611d59565b80600f8190555050565b60008073ffffffffffffffffffffffffffffffffffffffff168273ffffffffffffffffffffffffffffffffffffffff161415611102576040517f08c379a00000000000000000000000000000000000000000000000000000000081526004016110f990613d72565b60405180910390fd5b600360008373ffffffffffffffffffffffffffffffffffffffff1673ffffffffffffffffffffffffffffffffffffffff168152602001908152602001600020549050919050565b611151611d59565b61115b6000611de4565b565b601360009054906101000a900473ffffffffffffffffffffffffffffffffffffffff1681565b61118b611d59565b8060108190555050565b633b9aca00816111a59190614057565b60118190555050565b6111b6611d59565b600d60009054906101000a900460ff1615600d60006101000a81548160ff021916908315150217905550565b6000600a60009054906101000a900473ffffffffffffffffffffffffffffffffffffffff16905090565b60606001805461121b906141d7565b80601f0160208091040260200160405190810160405280929190818152602001828054611247906141d7565b80156112945780601f1061126957610100808354040283529160200191611294565b820191906000526020600020905b81548152906001019060200180831161127757829003601f168201915b5050505050905090565b60115481565b60011515600d60009054906101000a900460ff16151514156112fb576040517f08c379a00000000000000000000000000000000000000000000000000000000081526004016112f290613bf2565b60405180910390fd5b6000811161130857600080fd5b60105481111561131757600080fd5b3481600e546113269190614057565b1115611367576040517f08c379a000000000000000000000000000000000000000000000000000000000815260040161135e90613d32565b60405180910390fd5b60005b818110156113d457600061137e600b611eaa565b90505b61138a81611eb8565b156113a257818061139a9061423a565b925050611381565b600f5481116113c0576113b53382611f24565b6113bf600b611f42565b5b5080806113cc9061423a565b91505061136a565b5050565b6113ea6113e3611945565b8383611f58565b5050565b6113ff6113f9611945565b83611a06565b61143e576040517f08c379a000000000000000000000000000000000000000000000000000000000815260040161143590613e92565b60405180910390fd5b61144a848484846120c5565b50505050565b601360149054906101000a900460ff1681565b606061146e82611eb8565b6114ad576040517f08c379a00000000000000000000000000000000000000000000000000000000081526004016114a490613e12565b60405180910390fd5b6000600c80546114bc906141d7565b80601f01602080910402602001604051908101604052809291908181526020018280546114e8906141d7565b80156115355780601f1061150a57610100808354040283529160200191611535565b820191906000526020600020905b81548152906001019060200180831161151857829003601f168201915b50505050509050600081511161155a5760405180602001604052806000815250611585565b8061156484612121565b604051602001611575929190613a37565b6040516020818303038152906040525b915050919050565b60115434146115d1576040517f08c379a00000000000000000000000000000000000000000000000000000000081526004016115c890613c32565b60405180910390fd5b7fd5d55c8a68912e9a110618df8d5e2e83b8d83211c57a8ddd1203df92885dc88160405160405180910390a133601360006101000a81548173ffffffffffffffffffffffffffffffffffffffff021916908373ffffffffffffffffffffffffffffffffffffffff1602179055506000601360146101000a81548160ff0219169083600281111561168a577f4e487b7100000000000000000000000000000000000000000000000000000000600052602160045260246000fd5b0217905550601260009054906101000a900473ffffffffffffffffffffffffffffffffffffffff1673ffffffffffffffffffffffffffffffffffffffff166108fc479081150290604051600060405180830381858888f193505050501580156116f7573d6000803e3d6000fd5b50565b600f5481565b6000600560008473ffffffffffffffffffffffffffffffffffffffff1673ffffffffffffffffffffffffffffffffffffffff16815260200190815260200160002060008373ffffffffffffffffffffffffffffffffffffffff1673ffffffffffffffffffffffffffffffffffffffff16815260200190815260200160002060009054906101000a900460ff16905092915050565b61179c611d59565b600073ffffffffffffffffffffffffffffffffffffffff168173ffffffffffffffffffffffffffffffffffffffff16141561180c576040517f08c379a000000000000000000000000000000000000000000000000000000000815260040161180390613c92565b60405180910390fd5b61181581611de4565b50565b60007f80ac58cd000000000000000000000000000000000000000000000000000000007bffffffffffffffffffffffffffffffffffffffffffffffffffffffff1916827bffffffffffffffffffffffffffffffffffffffffffffffffffffffff191614806118e357507f5b5e139f000000000000000000000000000000000000000000000000000000007bffffffffffffffffffffffffffffffffffffffffffffffffffffffff1916827bffffffffffffffffffffffffffffffffffffffffffffffffffffffff1916145b806118f357506118f2826122ce565b5b9050919050565b61190381611eb8565b611942576040517f08c379a000000000000000000000000000000000000000000000000000000000815260040161193990613e32565b60405180910390fd5b50565b600033905090565b816004600083815260200190815260200160002060006101000a81548173ffffffffffffffffffffffffffffffffffffffff021916908373ffffffffffffffffffffffffffffffffffffffff160217905550808273ffffffffffffffffffffffffffffffffffffffff166119c083610f3f565b73ffffffffffffffffffffffffffffffffffffffff167f8c5be1e5ebec7d5bd14f71427d1e84f3dd0314c0f7b2291e5b200ac8c7c3b92560405160405180910390a45050565b600080611a1283610f3f565b90508073ffffffffffffffffffffffffffffffffffffffff168473ffffffffffffffffffffffffffffffffffffffff161480611a545750611a538185611700565b5b80611a9257508373ffffffffffffffffffffffffffffffffffffffff16611a7a84610a07565b73ffffffffffffffffffffffffffffffffffffffff16145b91505092915050565b8273ffffffffffffffffffffffffffffffffffffffff16611abb82610f3f565b73ffffffffffffffffffffffffffffffffffffffff1614611b11576040517f08c379a0000000000000000000000000000000000000000000000000000000008152600401611b0890613cb2565b60405180910390fd5b600073ffffffffffffffffffffffffffffffffffffffff168273ffffffffffffffffffffffffffffffffffffffff161415611b81576040517f08c379a0000000000000000000000000000000000000000000000000000000008152600401611b7890613cf2565b60405180910390fd5b611b8c838383612338565b611b9760008261194d565b6001600360008573ffffffffffffffffffffffffffffffffffffffff1673ffffffffffffffffffffffffffffffffffffffff1681526020019081526020016000206000828254611be791906140b1565b925050819055506001600360008473ffffffffffffffffffffffffffffffffffffffff1673ffffffffffffffffffffffffffffffffffffffff1681526020019081526020016000206000828254611c3e9190613fd0565b92505081905550816002600083815260200190815260200160002060006101000a81548173ffffffffffffffffffffffffffffffffffffffff021916908373ffffffffffffffffffffffffffffffffffffffff160217905550808273ffffffffffffffffffffffffffffffffffffffff168473ffffffffffffffffffffffffffffffffffffffff167fddf252ad1be2c89b69c2b068fc378daa952ba7f163c4a11628f55a4df523b3ef60405160405180910390a4611cfd83838361244c565b505050565b600081604051602001611d159190613a71565b604051602081830303815290604052805190602001209050919050565b6000806000611d418585612451565b91509150611d4e816124a3565b819250505092915050565b611d61611945565b73ffffffffffffffffffffffffffffffffffffffff16611d7f6111e2565b73ffffffffffffffffffffffffffffffffffffffff1614611dd5576040517f08c379a0000000000000000000000000000000000000000000000000000000008152600401611dcc90613df2565b60405180910390fd5b565b6000600880549050905090565b6000600a60009054906101000a900473ffffffffffffffffffffffffffffffffffffffff16905081600a60006101000a81548173ffffffffffffffffffffffffffffffffffffffff021916908373ffffffffffffffffffffffffffffffffffffffff1602179055508173ffffffffffffffffffffffffffffffffffffffff168173ffffffffffffffffffffffffffffffffffffffff167f8be0079c531659141344cd1fd0a4f28419497f9722a3daafe3b4186f6b6457e060405160405180910390a35050565b600081600001549050919050565b60008073ffffffffffffffffffffffffffffffffffffffff166002600084815260200190815260200160002060009054906101000a900473ffffffffffffffffffffffffffffffffffffffff1673ffffffffffffffffffffffffffffffffffffffff1614159050919050565b611f3e8282604051806020016040528060008152506127f4565b5050565b6001816000016000828254019250508190555050565b8173ffffffffffffffffffffffffffffffffffffffff168373ffffffffffffffffffffffffffffffffffffffff161415611fc7576040517f08c379a0000000000000000000000000000000000000000000000000000000008152600401611fbe90613d12565b60405180910390fd5b80600560008573ffffffffffffffffffffffffffffffffffffffff1673ffffffffffffffffffffffffffffffffffffffff16815260200190815260200160002060008473ffffffffffffffffffffffffffffffffffffffff1673ffffffffffffffffffffffffffffffffffffffff16815260200190815260200160002060006101000a81548160ff0219169083151502179055508173ffffffffffffffffffffffffffffffffffffffff168373ffffffffffffffffffffffffffffffffffffffff167f17307eab39ab6107e8899845ad3d59bd9653f200f220920489ca2b5937696c31836040516120b89190613b35565b60405180910390a3505050565b6120d0848484611a9b565b6120dc8484848461284f565b61211b576040517f08c379a000000000000000000000000000000000000000000000000000000000815260040161211290613c72565b60405180910390fd5b50505050565b60606000821415612169576040518060400160405280600181526020017f300000000000000000000000000000000000000000000000000000000000000081525090506122c9565b600082905060005b6000821461219b5780806121849061423a565b915050600a826121949190614026565b9150612171565b60008167ffffffffffffffff8111156121dd577f4e487b7100000000000000000000000000000000000000000000000000000000600052604160045260246000fd5b6040519080825280601f01601f19166020018201604052801561220f5781602001600182028036833780820191505090505b5090505b600085146122c25760018261222891906140b1565b9150600a85612237919061428d565b60306122439190613fd0565b60f81b81838151811061227f577f4e487b7100000000000000000000000000000000000000000000000000000000600052603260045260246000fd5b60200101907effffffffffffffffffffffffffffffffffffffffffffffffffffffffffffff1916908160001a905350600a856122bb9190614026565b9450612213565b8093505050505b919050565b60007f01ffc9a7000000000000000000000000000000000000000000000000000000007bffffffffffffffffffffffffffffffffffffffffffffffffffffffff1916827bffffffffffffffffffffffffffffffffffffffffffffffffffffffff1916149050919050565b6123438383836129e6565b600073ffffffffffffffffffffffffffffffffffffffff168373ffffffffffffffffffffffffffffffffffffffff16141561238657612381816129eb565b6123c5565b8173ffffffffffffffffffffffffffffffffffffffff168373ffffffffffffffffffffffffffffffffffffffff16146123c4576123c38382612a34565b5b5b600073ffffffffffffffffffffffffffffffffffffffff168273ffffffffffffffffffffffffffffffffffffffff1614156124085761240381612ba1565b612447565b8273ffffffffffffffffffffffffffffffffffffffff168273ffffffffffffffffffffffffffffffffffffffff1614612446576124458282612ce4565b5b5b505050565b505050565b6000806041835114156124935760008060006020860151925060408601519150606086015160001a905061248787828585612d63565b9450945050505061249c565b60006002915091505b9250929050565b600060048111156124dd577f4e487b7100000000000000000000000000000000000000000000000000000000600052602160045260246000fd5b816004811115612516577f4e487b7100000000000000000000000000000000000000000000000000000000600052602160045260246000fd5b1415612521576127f1565b6001600481111561255b577f4e487b7100000000000000000000000000000000000000000000000000000000600052602160045260246000fd5b816004811115612594577f4e487b7100000000000000000000000000000000000000000000000000000000600052602160045260246000fd5b14156125d5576040517f08c379a00000000000000000000000000000000000000000000000000000000081526004016125cc90613bd2565b60405180910390fd5b6002600481111561260f577f4e487b7100000000000000000000000000000000000000000000000000000000600052602160045260246000fd5b816004811115612648577f4e487b7100000000000000000000000000000000000000000000000000000000600052602160045260246000fd5b1415612689576040517f08c379a000000000000000000000000000000000000000000000000000000000815260040161268090613c12565b60405180910390fd5b600360048111156126c3577f4e487b7100000000000000000000000000000000000000000000000000000000600052602160045260246000fd5b8160048111156126fc577f4e487b7100000000000000000000000000000000000000000000000000000000600052602160045260246000fd5b141561273d576040517f08c379a000000000000000000000000000000000000000000000000000000000815260040161273490613d52565b60405180910390fd5b600480811115612776577f4e487b7100000000000000000000000000000000000000000000000000000000600052602160045260246000fd5b8160048111156127af577f4e487b7100000000000000000000000000000000000000000000000000000000600052602160045260246000fd5b14156127f0576040517f08c379a00000000000000000000000000000000000000000000000000000000081526004016127e790613d92565b60405180910390fd5b5b50565b6127fe8383612e70565b61280b600084848461284f565b61284a576040517f08c379a000000000000000000000000000000000000000000000000000000000815260040161284190613c72565b60405180910390fd5b505050565b60006128708473ffffffffffffffffffffffffffffffffffffffff1661304a565b156129d9578373ffffffffffffffffffffffffffffffffffffffff1663150b7a02612899611945565b8786866040518563ffffffff1660e01b81526004016128bb9493929190613ac7565b602060405180830381600087803b1580156128d557600080fd5b505af192505050801561290657506040513d601f19601f820116820180604052508101906129039190613419565b60015b612989573d8060008114612936576040519150601f19603f3d011682016040523d82523d6000602084013e61293b565b606091505b50600081511415612981576040517f08c379a000000000000000000000000000000000000000000000000000000000815260040161297890613c72565b60405180910390fd5b805181602001fd5b63150b7a0260e01b7bffffffffffffffffffffffffffffffffffffffffffffffffffffffff1916817bffffffffffffffffffffffffffffffffffffffffffffffffffffffff1916149150506129de565b600190505b949350505050565b505050565b6008805490506009600083815260200190815260200160002081905550600881908060018154018082558091505060019003906000526020600020016000909190919091505550565b60006001612a4184611091565b612a4b91906140b1565b9050600060076000848152602001908152602001600020549050818114612b30576000600660008673ffffffffffffffffffffffffffffffffffffffff1673ffffffffffffffffffffffffffffffffffffffff168152602001908152602001600020600084815260200190815260200160002054905080600660008773ffffffffffffffffffffffffffffffffffffffff1673ffffffffffffffffffffffffffffffffffffffff168152602001908152602001600020600084815260200190815260200160002081905550816007600083815260200190815260200160002081905550505b6007600084815260200190815260200160002060009055600660008573ffffffffffffffffffffffffffffffffffffffff1673ffffffffffffffffffffffffffffffffffffffff16815260200190815260200160002060008381526020019081526020016000206000905550505050565b60006001600880549050612bb591906140b1565b9050600060096000848152602001908152602001600020549050600060088381548110612c0b577f4e487b7100000000000000000000000000000000000000000000000000000000600052603260045260246000fd5b906000526020600020015490508060088381548110612c53577f4e487b7100000000000000000000000000000000000000000000000000000000600052603260045260246000fd5b906000526020600020018190555081600960008381526020019081526020016000208190555060096000858152602001908152602001600020600090556008805480612cc8577f4e487b7100000000000000000000000000000000000000000000000000000000600052603160045260246000fd5b6001900381819060005260206000200160009055905550505050565b6000612cef83611091565b905081600660008573ffffffffffffffffffffffffffffffffffffffff1673ffffffffffffffffffffffffffffffffffffffff168152602001908152602001600020600083815260200190815260200160002081905550806007600084815260200190815260200160002081905550505050565b6000807f7fffffffffffffffffffffffffffffff5d576e7357a4501ddfe92f46681b20a08360001c1115612d9e576000600391509150612e67565b601b8560ff1614158015612db65750601c8560ff1614155b15612dc8576000600491509150612e67565b600060018787878760405160008152602001604052604051612ded9493929190613b50565b6020604051602081039080840390855afa158015612e0f573d6000803e3d6000fd5b505050602060405103519050600073ffffffffffffffffffffffffffffffffffffffff168173ffffffffffffffffffffffffffffffffffffffff161415612e5e57600060019250925050612e67565b80600092509250505b94509492505050565b600073ffffffffffffffffffffffffffffffffffffffff168273ffffffffffffffffffffffffffffffffffffffff161415612ee0576040517f08c379a0000000000000000000000000000000000000000000000000000000008152600401612ed790613dd2565b60405180910390fd5b612ee981611eb8565b15612f29576040517f08c379a0000000000000000000000000000000000000000000000000000000008152600401612f2090613cd2565b60405180910390fd5b612f3560008383612338565b6001600360008473ffffffffffffffffffffffffffffffffffffffff1673ffffffffffffffffffffffffffffffffffffffff1681526020019081526020016000206000828254612f859190613fd0565b92505081905550816002600083815260200190815260200160002060006101000a81548173ffffffffffffffffffffffffffffffffffffffff021916908373ffffffffffffffffffffffffffffffffffffffff160217905550808273ffffffffffffffffffffffffffffffffffffffff16600073ffffffffffffffffffffffffffffffffffffffff167fddf252ad1be2c89b69c2b068fc378daa952ba7f163c4a11628f55a4df523b3ef60405160405180910390a46130466000838361244c565b5050565b6000808273ffffffffffffffffffffffffffffffffffffffff163b119050919050565b828054613079906141d7565b90600052602060002090601f01602090048101928261309b57600085556130e2565b82601f106130b457805160ff19168380011785556130e2565b828001600101855582156130e2579182015b828111156130e15782518255916020019190600101906130c6565b5b5090506130ef91906130f3565b5090565b5b8082111561310c5760008160009055506001016130f4565b5090565b600061312361311e84613ef2565b613ecd565b90508281526020810184848401111561313b57600080fd5b613146848285614195565b509392505050565b600061316161315c84613f23565b613ecd565b90508281526020810184848401111561317957600080fd5b613184848285614195565b509392505050565b60008135905061319b81614a35565b92915050565b6000813590506131b081614a4c565b92915050565b6000813590506131c581614a63565b92915050565b6000815190506131da81614a63565b92915050565b600082601f8301126131f157600080fd5b8135613201848260208601613110565b91505092915050565b600082601f83011261321b57600080fd5b813561322b84826020860161314e565b91505092915050565b60008135905061324381614a7a565b92915050565b60006020828403121561325b57600080fd5b60006132698482850161318c565b91505092915050565b6000806040838503121561328557600080fd5b60006132938582860161318c565b92505060206132a48582860161318c565b9150509250929050565b6000806000606084860312156132c357600080fd5b60006132d18682870161318c565b93505060206132e28682870161318c565b92505060406132f386828701613234565b9150509250925092565b6000806000806080858703121561331357600080fd5b60006133218782880161318c565b94505060206133328782880161318c565b935050604061334387828801613234565b925050606085013567ffffffffffffffff81111561336057600080fd5b61336c878288016131e0565b91505092959194509250565b6000806040838503121561338b57600080fd5b60006133998582860161318c565b92505060206133aa858286016131a1565b9150509250929050565b600080604083850312156133c757600080fd5b60006133d58582860161318c565b92505060206133e685828601613234565b9150509250929050565b60006020828403121561340257600080fd5b6000613410848285016131b6565b91505092915050565b60006020828403121561342b57600080fd5b6000613439848285016131cb565b91505092915050565b60006020828403121561345457600080fd5b600082013567ffffffffffffffff81111561346e57600080fd5b61347a848285016131e0565b91505092915050565b60006020828403121561349557600080fd5b600082013567ffffffffffffffff8111156134af57600080fd5b6134bb8482850161320a565b91505092915050565b6000602082840312156134d657600080fd5b60006134e484828501613234565b91505092915050565b60006134f98383613a0a565b60208301905092915050565b61350e816140e5565b82525050565b600061351f82613f64565b6135298185613f92565b935061353483613f54565b8060005b8381101561356557815161354c88826134ed565b975061355783613f85565b925050600181019050613538565b5085935050505092915050565b61357b816140f7565b82525050565b61358a81614103565b82525050565b6135a161359c82614103565b614283565b82525050565b60006135b282613f6f565b6135bc8185613fa3565b93506135cc8185602086016141a4565b6135d5816143a9565b840191505092915050565b6135e981614183565b82525050565b60006135fa82613f7a565b6136048185613fb4565b93506136148185602086016141a4565b61361d816143a9565b840191505092915050565b600061363382613f7a565b61363d8185613fc5565b935061364d8185602086016141a4565b80840191505092915050565b6000613666601883613fb4565b9150613671826143ba565b602082019050919050565b6000613689601383613fb4565b9150613694826143e3565b602082019050919050565b60006136ac601f83613fb4565b91506136b78261440c565b602082019050919050565b60006136cf601c83613fc5565b91506136da82614435565b601c82019050919050565b60006136f2602783613fb4565b91506136fd8261445e565b604082019050919050565b6000613715602b83613fb4565b9150613720826144ad565b604082019050919050565b6000613738603283613fb4565b9150613743826144fc565b604082019050919050565b600061375b602683613fb4565b91506137668261454b565b604082019050919050565b600061377e602583613fb4565b91506137898261459a565b604082019050919050565b60006137a1601c83613fb4565b91506137ac826145e9565b602082019050919050565b60006137c4602483613fb4565b91506137cf82614612565b604082019050919050565b60006137e7601983613fb4565b91506137f282614661565b602082019050919050565b600061380a601f83613fb4565b91506138158261468a565b602082019050919050565b600061382d602283613fb4565b9150613838826146b3565b604082019050919050565b6000613850602983613fb4565b915061385b82614702565b604082019050919050565b6000613873600a83613fc5565b915061387e82614751565b600a82019050919050565b6000613896602283613fb4565b91506138a18261477a565b604082019050919050565b60006138b9603e83613fb4565b91506138c4826147c9565b604082019050919050565b60006138dc602083613fb4565b91506138e782614818565b602082019050919050565b60006138ff600583613fc5565b915061390a82614841565b600582019050919050565b6000613922602083613fb4565b915061392d8261486a565b602082019050919050565b6000613945602f83613fb4565b915061395082614893565b604082019050919050565b6000613968601883613fb4565b9150613973826148e2565b602082019050919050565b600061398b602183613fb4565b91506139968261490b565b604082019050919050565b60006139ae602c83613fb4565b91506139b98261495a565b604082019050919050565b60006139d1602e83613fb4565b91506139dc826149a9565b604082019050919050565b60006139f4600183613fc5565b91506139ff826149f8565b600182019050919050565b613a138161416c565b82525050565b613a228161416c565b82525050565b613a3181614176565b82525050565b6000613a438285613628565b9150613a4e826139e7565b9150613a5a8284613628565b9150613a65826138f2565b91508190509392505050565b6000613a7c826136c2565b9150613a888284613590565b60208201915081905092915050565b6000613aa282613866565b9150819050919050565b6000602082019050613ac16000830184613505565b92915050565b6000608082019050613adc6000830187613505565b613ae96020830186613505565b613af66040830185613a19565b8181036060830152613b0881846135a7565b905095945050505050565b60006020820190508181036000830152613b2d8184613514565b905092915050565b6000602082019050613b4a6000830184613572565b92915050565b6000608082019050613b656000830187613581565b613b726020830186613a28565b613b7f6040830185613581565b613b8c6060830184613581565b95945050505050565b6000602082019050613baa60008301846135e0565b92915050565b60006020820190508181036000830152613bca81846135ef565b905092915050565b60006020820190508181036000830152613beb81613659565b9050919050565b60006020820190508181036000830152613c0b8161367c565b9050919050565b60006020820190508181036000830152613c2b8161369f565b9050919050565b60006020820190508181036000830152613c4b816136e5565b9050919050565b60006020820190508181036000830152613c6b81613708565b9050919050565b60006020820190508181036000830152613c8b8161372b565b9050919050565b60006020820190508181036000830152613cab8161374e565b9050919050565b60006020820190508181036000830152613ccb81613771565b9050919050565b60006020820190508181036000830152613ceb81613794565b9050919050565b60006020820190508181036000830152613d0b816137b7565b9050919050565b60006020820190508181036000830152613d2b816137da565b9050919050565b60006020820190508181036000830152613d4b816137fd565b9050919050565b60006020820190508181036000830152613d6b81613820565b9050919050565b60006020820190508181036000830152613d8b81613843565b9050919050565b60006020820190508181036000830152613dab81613889565b9050919050565b60006020820190508181036000830152613dcb816138ac565b9050919050565b60006020820190508181036000830152613deb816138cf565b9050919050565b60006020820190508181036000830152613e0b81613915565b9050919050565b60006020820190508181036000830152613e2b81613938565b9050919050565b60006020820190508181036000830152613e4b8161395b565b9050919050565b60006020820190508181036000830152613e6b8161397e565b9050919050565b60006020820190508181036000830152613e8b816139a1565b9050919050565b60006020820190508181036000830152613eab816139c4565b9050919050565b6000602082019050613ec76000830184613a19565b92915050565b6000613ed7613ee8565b9050613ee38282614209565b919050565b6000604051905090565b600067ffffffffffffffff821115613f0d57613f0c61437a565b5b613f16826143a9565b9050602081019050919050565b600067ffffffffffffffff821115613f3e57613f3d61437a565b5b613f47826143a9565b9050602081019050919050565b6000819050602082019050919050565b600081519050919050565b600081519050919050565b600081519050919050565b6000602082019050919050565b600082825260208201905092915050565b600082825260208201905092915050565b600082825260208201905092915050565b600081905092915050565b6000613fdb8261416c565b9150613fe68361416c565b9250827fffffffffffffffffffffffffffffffffffffffffffffffffffffffffffffffff0382111561401b5761401a6142be565b5b828201905092915050565b60006140318261416c565b915061403c8361416c565b92508261404c5761404b6142ed565b5b828204905092915050565b60006140628261416c565b915061406d8361416c565b9250817fffffffffffffffffffffffffffffffffffffffffffffffffffffffffffffffff04831182151516156140a6576140a56142be565b5b828202905092915050565b60006140bc8261416c565b91506140c78361416c565b9250828210156140da576140d96142be565b5b828203905092915050565b60006140f08261414c565b9050919050565b60008115159050919050565b6000819050919050565b60007fffffffff0000000000000000000000000000000000000000000000000000000082169050919050565b600081905061414782614a21565b919050565b600073ffffffffffffffffffffffffffffffffffffffff82169050919050565b6000819050919050565b600060ff82169050919050565b600061418e82614139565b9050919050565b82818337600083830152505050565b60005b838110156141c25780820151818401526020810190506141a7565b838111156141d1576000848401525b50505050565b600060028204905060018216806141ef57607f821691505b602082108114156142035761420261434b565b5b50919050565b614212826143a9565b810181811067ffffffffffffffff821117156142315761423061437a565b5b80604052505050565b60006142458261416c565b91507fffffffffffffffffffffffffffffffffffffffffffffffffffffffffffffffff821415614278576142776142be565b5b600182019050919050565b6000819050919050565b60006142988261416c565b91506142a38361416c565b9250826142b3576142b26142ed565b5b828206905092915050565b7f4e487b7100000000000000000000000000000000000000000000000000000000600052601160045260246000fd5b7f4e487b7100000000000000000000000000000000000000000000000000000000600052601260045260246000fd5b7f4e487b7100000000000000000000000000000000000000000000000000000000600052602160045260246000fd5b7f4e487b7100000000000000000000000000000000000000000000000000000000600052602260045260246000fd5b7f4e487b7100000000000000000000000000000000000000000000000000000000600052604160045260246000fd5b6000601f19601f8301169050919050565b7f45434453413a20696e76616c6964207369676e61747572650000000000000000600082015250565b7f53616c65206d7573742062652061637469766500000000000000000000000000600082015250565b7f45434453413a20696e76616c6964207369676e6174757265206c656e67746800600082015250565b7f19457468657265756d205369676e6564204d6573736167653a0a333200000000600082015250565b7f506c6561736520706179206163636f7264696e6720746f20746865206974656d60008201527f2070726963652e00000000000000000000000000000000000000000000000000602082015250565b7f455243373231456e756d657261626c653a206f776e657220696e646578206f7560008201527f74206f6620626f756e6473000000000000000000000000000000000000000000602082015250565b7f4552433732313a207472616e7366657220746f206e6f6e20455243373231526560008201527f63656976657220696d706c656d656e7465720000000000000000000000000000602082015250565b7f4f776e61626c653a206e6577206f776e657220697320746865207a65726f206160008201527f6464726573730000000000000000000000000000000000000000000000000000602082015250565b7f4552433732313a207472616e736665722066726f6d20696e636f72726563742060008201527f6f776e6572000000000000000000000000000000000000000000000000000000602082015250565b7f4552433732313a20746f6b656e20616c7265616479206d696e74656400000000600082015250565b7f4552433732313a207472616e7366657220746f20746865207a65726f2061646460008201527f7265737300000000000000000000000000000000000000000000000000000000602082015250565b7f4552433732313a20617070726f766520746f2063616c6c657200000000000000600082015250565b7f45746865722076616c75652073656e74206973206e6f7420636f727265637400600082015250565b7f45434453413a20696e76616c6964207369676e6174757265202773272076616c60008201527f7565000000000000000000000000000000000000000000000000000000000000602082015250565b7f4552433732313a2061646472657373207a65726f206973206e6f74206120766160008201527f6c6964206f776e65720000000000000000000000000000000000000000000000602082015250565b7f48656c6c6f576f726c6400000000000000000000000000000000000000000000600082015250565b7f45434453413a20696e76616c6964207369676e6174757265202776272076616c60008201527f7565000000000000000000000000000000000000000000000000000000000000602082015250565b7f4552433732313a20617070726f76652063616c6c6572206973206e6f7420746f60008201527f6b656e206f776e6572206e6f7220617070726f76656420666f7220616c6c0000602082015250565b7f4552433732313a206d696e7420746f20746865207a65726f2061646472657373600082015250565b7f2e6a736f6e000000000000000000000000000000000000000000000000000000600082015250565b7f4f776e61626c653a2063616c6c6572206973206e6f7420746865206f776e6572600082015250565b7f4552433732314d657461646174613a2055524920717565727920666f72206e6f60008201527f6e6578697374656e7420746f6b656e0000000000000000000000000000000000602082015250565b7f4552433732313a20696e76616c696420746f6b656e2049440000000000000000600082015250565b7f4552433732313a20617070726f76616c20746f2063757272656e74206f776e6560008201527f7200000000000000000000000000000000000000000000000000000000000000602082015250565b7f455243373231456e756d657261626c653a20676c6f62616c20696e646578206f60008201527f7574206f6620626f756e64730000000000000000000000000000000000000000602082015250565b7f4552433732313a2063616c6c6572206973206e6f7420746f6b656e206f776e6560008201527f72206e6f7220617070726f766564000000000000000000000000000000000000602082015250565b7f2f00000000000000000000000000000000000000000000000000000000000000600082015250565b60038110614a3257614a3161431c565b5b50565b614a3e816140e5565b8114614a4957600080fd5b50565b614a55816140f7565b8114614a6057600080fd5b50565b614a6c8161410d565b8114614a7757600080fd5b50565b614a838161416c565b8114614a8e57600080fd5b5056fea2646970667358221220d4a8937fdd99e83e4b56921522330f0f23170585d79d9be59dabb11881d56b9464736f6c63430008040033697066733a2f2f516d54734a78746e37454e4757746436373852647a597469626432546b77565a42484b733879745047784c4d3472",
  "linkReferences": {},
  "deployedLinkReferences": {}
}