{
  "_format": "hh-sol-artifact-1",
  "contractName": "SimplePay",
  "sourceName": "contracts/SimplePay.sol",
  "abi": [
    {
      "inputs": [],
      "stateMutability": "payable",
      "type": "constructor"
    },
    {
      "anonymous": false,
      "inputs": [],
      "name": "Aborted",
      "type": "event"
    },
    {
      "anonymous": false,
      "inputs": [],
      "name": "ItemReceived",
      "type": "event"
    },
    {
      "anonymous": false,
      "inputs": [],
      "name": "PurchaseConfirmed",
      "type": "event"
    },
    {
      "inputs": [],
      "name": "buyer",
      "outputs": [
        {
          "internalType": "address",
          "name": "",
          "type": "address"
        }
      ],
      "stateMutability": "view",
      "type": "function"
    },
    {
      "inputs": [
        {
          "internalType": "uint256",
          "name": "productPrice",
          "type": "uint256"
        }
      ],
      "name": "cost",
      "outputs": [],
      "stateMutability": "payable",
      "type": "function"
    },
    {
      "inputs": [
        {
          "internalType": "bytes",
          "name": "_signature",
          "type": "bytes"
        }
      ],
      "name": "deposit",
      "outputs": [],
      "stateMutability": "payable",
      "type": "function"
    },
    {
      "inputs": [
        {
          "internalType": "bytes",
          "name": "_signature",
          "type": "bytes"
        }
      ],
      "name": "isMessageVaild",
      "outputs": [
        {
          "internalType": "bool",
          "name": "",
          "type": "bool"
        }
      ],
      "stateMutability": "view",
      "type": "function"
    },
    {
      "inputs": [],
      "name": "price",
      "outputs": [
        {
          "internalType": "uint256",
          "name": "",
          "type": "uint256"
        }
      ],
      "stateMutability": "view",
      "type": "function"
    },
    {
      "inputs": [],
      "name": "seller",
      "outputs": [
        {
          "internalType": "address",
          "name": "",
          "type": "address"
        }
      ],
      "stateMutability": "view",
      "type": "function"
    },
    {
      "inputs": [],
      "name": "state",
      "outputs": [
        {
          "internalType": "enum SimplePay.State",
          "name": "",
          "type": "uint8"
        }
      ],
      "stateMutability": "view",
      "type": "function"
    }
  ],
  "bytecode": "0x608060405273c98e9c69119eb0b764b0d5dcbc1532de8bfc2d4f600160006101000a81548173ffffffffffffffffffffffffffffffffffffffff021916908373ffffffffffffffffffffffffffffffffffffffff160217905550611141806100686000396000f3fe6080604052600436106100705760003560e01c80639097548d1161004e5780639097548d1461010857806398b1e06a14610124578063a035b1fe14610140578063c19d93fb1461016b57610070565b806308551a531461007557806328308398146100a05780637150d8ae146100dd575b600080fd5b34801561008157600080fd5b5061008a610196565b6040516100979190610c06565b60405180910390f35b3480156100ac57600080fd5b506100c760048036038101906100c291906109d8565b6101bc565b6040516100d49190610c21565b60405180910390f35b3480156100e957600080fd5b506100f2610255565b6040516100ff9190610c06565b60405180910390f35b610122600480360381019061011d9190610a19565b61027b565b005b61013e600480360381019061013991906109d8565b610285565b005b34801561014c57600080fd5b5061015561043b565b6040516101629190610d5c565b60405180910390f35b34801561017757600080fd5b50610180610441565b60405161018d9190610c81565b60405180910390f35b600160009054906101000a900473ffffffffffffffffffffffffffffffffffffffff1681565b6000806040516020016101ce90610bf1565b604051602081830303815290604052905060008180519060200120905060006101f682610454565b905060006102048287610484565b90508073ffffffffffffffffffffffffffffffffffffffff163373ffffffffffffffffffffffffffffffffffffffff161415610247576001945050505050610250565b60009450505050505b919050565b600260009054906101000a900473ffffffffffffffffffffffffffffffffffffffff1681565b8060008190555050565b60005434146102c9576040517f08c379a00000000000000000000000000000000000000000000000000000000081526004016102c090610cdc565b60405180910390fd5b6102d2816101bc565b610311576040517f08c379a000000000000000000000000000000000000000000000000000000000815260040161030890610cfc565b60405180910390fd5b7fd5d55c8a68912e9a110618df8d5e2e83b8d83211c57a8ddd1203df92885dc88160405160405180910390a133600260006101000a81548173ffffffffffffffffffffffffffffffffffffffff021916908373ffffffffffffffffffffffffffffffffffffffff1602179055506000600260146101000a81548160ff021916908360028111156103ca577f4e487b7100000000000000000000000000000000000000000000000000000000600052602160045260246000fd5b0217905550600160009054906101000a900473ffffffffffffffffffffffffffffffffffffffff1673ffffffffffffffffffffffffffffffffffffffff166108fc479081150290604051600060405180830381858888f19350505050158015610437573d6000803e3d6000fd5b5050565b60005481565b600260149054906101000a900460ff1681565b6000816040516020016104679190610bcb565b604051602081830303815290604052805190602001209050919050565b600080600061049385856104ab565b915091506104a0816104fd565b819250505092915050565b6000806041835114156104ed5760008060006020860151925060408601519150606086015160001a90506104e18782858561084e565b945094505050506104f6565b60006002915091505b9250929050565b60006004811115610537577f4e487b7100000000000000000000000000000000000000000000000000000000600052602160045260246000fd5b816004811115610570577f4e487b7100000000000000000000000000000000000000000000000000000000600052602160045260246000fd5b141561057b5761084b565b600160048111156105b5577f4e487b7100000000000000000000000000000000000000000000000000000000600052602160045260246000fd5b8160048111156105ee577f4e487b7100000000000000000000000000000000000000000000000000000000600052602160045260246000fd5b141561062f576040517f08c379a000000000000000000000000000000000000000000000000000000000815260040161062690610c9c565b60405180910390fd5b60026004811115610669577f4e487b7100000000000000000000000000000000000000000000000000000000600052602160045260246000fd5b8160048111156106a2577f4e487b7100000000000000000000000000000000000000000000000000000000600052602160045260246000fd5b14156106e3576040517f08c379a00000000000000000000000000000000000000000000000000000000081526004016106da90610cbc565b60405180910390fd5b6003600481111561071d577f4e487b7100000000000000000000000000000000000000000000000000000000600052602160045260246000fd5b816004811115610756577f4e487b7100000000000000000000000000000000000000000000000000000000600052602160045260246000fd5b1415610797576040517f08c379a000000000000000000000000000000000000000000000000000000000815260040161078e90610d1c565b60405180910390fd5b6004808111156107d0577f4e487b7100000000000000000000000000000000000000000000000000000000600052602160045260246000fd5b816004811115610809577f4e487b7100000000000000000000000000000000000000000000000000000000600052602160045260246000fd5b141561084a576040517f08c379a000000000000000000000000000000000000000000000000000000000815260040161084190610d3c565b60405180910390fd5b5b50565b6000807f7fffffffffffffffffffffffffffffff5d576e7357a4501ddfe92f46681b20a08360001c1115610889576000600391509150610952565b601b8560ff16141580156108a15750601c8560ff1614155b156108b3576000600491509150610952565b6000600187878787604051600081526020016040526040516108d89493929190610c3c565b6020604051602081039080840390855afa1580156108fa573d6000803e3d6000fd5b505050602060405103519050600073ffffffffffffffffffffffffffffffffffffffff168173ffffffffffffffffffffffffffffffffffffffff16141561094957600060019250925050610952565b80600092509250505b94509492505050565b600061096e61096984610d9c565b610d77565b90508281526020810184848401111561098657600080fd5b610991848285610e6d565b509392505050565b600082601f8301126109aa57600080fd5b81356109ba84826020860161095b565b91505092915050565b6000813590506109d2816110f4565b92915050565b6000602082840312156109ea57600080fd5b600082013567ffffffffffffffff811115610a0457600080fd5b610a1084828501610999565b91505092915050565b600060208284031215610a2b57600080fd5b6000610a39848285016109c3565b91505092915050565b610a4b81610de9565b82525050565b610a5a81610dfb565b82525050565b610a6981610e07565b82525050565b610a80610a7b82610e07565b610ead565b82525050565b610a8f81610e5b565b82525050565b6000610aa2601883610dcd565b9150610aad82610f26565b602082019050919050565b6000610ac5601f83610dcd565b9150610ad082610f4f565b602082019050919050565b6000610ae8601c83610dde565b9150610af382610f78565b601c82019050919050565b6000610b0b602783610dcd565b9150610b1682610fa1565b604082019050919050565b6000610b2e601983610dcd565b9150610b3982610ff0565b602082019050919050565b6000610b51602283610dcd565b9150610b5c82611019565b604082019050919050565b6000610b74600a83610dde565b9150610b7f82611068565b600a82019050919050565b6000610b97602283610dcd565b9150610ba282611091565b604082019050919050565b610bb681610e44565b82525050565b610bc581610e4e565b82525050565b6000610bd682610adb565b9150610be28284610a6f565b60208201915081905092915050565b6000610bfc82610b67565b9150819050919050565b6000602082019050610c1b6000830184610a42565b92915050565b6000602082019050610c366000830184610a51565b92915050565b6000608082019050610c516000830187610a60565b610c5e6020830186610bbc565b610c6b6040830185610a60565b610c786060830184610a60565b95945050505050565b6000602082019050610c966000830184610a86565b92915050565b60006020820190508181036000830152610cb581610a95565b9050919050565b60006020820190508181036000830152610cd581610ab8565b9050919050565b60006020820190508181036000830152610cf581610afe565b9050919050565b60006020820190508181036000830152610d1581610b21565b9050919050565b60006020820190508181036000830152610d3581610b44565b9050919050565b60006020820190508181036000830152610d5581610b8a565b9050919050565b6000602082019050610d716000830184610bad565b92915050565b6000610d81610d92565b9050610d8d8282610e7c565b919050565b6000604051905090565b600067ffffffffffffffff821115610db757610db6610ee6565b5b610dc082610f15565b9050602081019050919050565b600082825260208201905092915050565b600081905092915050565b6000610df482610e24565b9050919050565b60008115159050919050565b6000819050919050565b6000819050610e1f826110e0565b919050565b600073ffffffffffffffffffffffffffffffffffffffff82169050919050565b6000819050919050565b600060ff82169050919050565b6000610e6682610e11565b9050919050565b82818337600083830152505050565b610e8582610f15565b810181811067ffffffffffffffff82111715610ea457610ea3610ee6565b5b80604052505050565b6000819050919050565b7f4e487b7100000000000000000000000000000000000000000000000000000000600052602160045260246000fd5b7f4e487b7100000000000000000000000000000000000000000000000000000000600052604160045260246000fd5b6000601f19601f8301169050919050565b7f45434453413a20696e76616c6964207369676e61747572650000000000000000600082015250565b7f45434453413a20696e76616c6964207369676e6174757265206c656e67746800600082015250565b7f19457468657265756d205369676e6564204d6573736167653a0a333200000000600082015250565b7f506c6561736520706179206163636f7264696e6720746f20746865206974656d60008201527f2070726963652e00000000000000000000000000000000000000000000000000602082015250565b7f4d757374206e65656420796f7572207369676e61747572652e00000000000000600082015250565b7f45434453413a20696e76616c6964207369676e6174757265202773272076616c60008201527f7565000000000000000000000000000000000000000000000000000000000000602082015250565b7f48656c6c6f576f726c6400000000000000000000000000000000000000000000600082015250565b7f45434453413a20696e76616c6964207369676e6174757265202776272076616c60008201527f7565000000000000000000000000000000000000000000000000000000000000602082015250565b600381106110f1576110f0610eb7565b5b50565b6110fd81610e44565b811461110857600080fd5b5056fea2646970667358221220cf0f03fd95b79d950b5ceec559bd5b8854ec6513dc41cc2339de3f7d2facee4d64736f6c63430008040033",
  "linkReferences": {},
  "deployedLinkReferences": {}
}